{
  "address": "0x9A90f394b6de7E462669413fEf6D3e644B7Dd0E5",
  "abi": [
    {
      "inputs": [
        {
          "internalType": "contract IERC20",
          "name": "_token",
          "type": "address"
        }
      ],
      "stateMutability": "nonpayable",
      "type": "constructor"
    },
    {
      "anonymous": false,
      "inputs": [
        {
          "indexed": true,
          "internalType": "uint256",
          "name": "communityId",
          "type": "uint256"
        },
        {
          "indexed": false,
          "internalType": "string",
          "name": "ipfsMetadata",
          "type": "string"
        },
        {
          "indexed": false,
          "internalType": "uint256",
          "name": "stakingRequirement",
          "type": "uint256"
        },
        {
          "indexed": true,
          "internalType": "address",
          "name": "owner",
          "type": "address"
        }
      ],
      "name": "CommunityCreated",
      "type": "event"
    },
    {
      "anonymous": false,
      "inputs": [
        {
          "indexed": true,
          "internalType": "uint256",
          "name": "communityId",
          "type": "uint256"
        },
        {
          "indexed": true,
          "internalType": "address",
          "name": "member",
          "type": "address"
        }
      ],
      "name": "MemberJoinedCommunity",
      "type": "event"
    },
    {
      "anonymous": false,
      "inputs": [
        {
          "indexed": true,
          "internalType": "uint256",
          "name": "communityId",
          "type": "uint256"
        },
        {
          "indexed": true,
          "internalType": "uint256",
          "name": "offerId",
          "type": "uint256"
        },
        {
          "indexed": true,
          "internalType": "address",
          "name": "member",
          "type": "address"
        }
      ],
      "name": "OfferAccepted",
      "type": "event"
    },
    {
      "anonymous": false,
      "inputs": [
        {
          "indexed": true,
          "internalType": "uint256",
          "name": "communityId",
          "type": "uint256"
        },
        {
          "indexed": false,
          "internalType": "uint256",
          "name": "offerId",
          "type": "uint256"
        },
        {
          "components": [
            {
              "internalType": "address",
              "name": "owner",
              "type": "address"
            },
            {
              "internalType": "uint256",
              "name": "communityId",
              "type": "uint256"
            },
            {
              "internalType": "string",
              "name": "metadata",
              "type": "string"
            },
            {
              "internalType": "uint256",
              "name": "reputationRequirement",
              "type": "uint256"
            },
            {
              "internalType": "uint256",
              "name": "stakingRequirement",
              "type": "uint256"
            },
            {
              "internalType": "string",
              "name": "offerStatus",
              "type": "string"
            }
          ],
          "indexed": false,
          "internalType": "struct PeerLocal.Offer",
          "name": "newOffer",
          "type": "tuple"
        }
      ],
      "name": "OfferCreated",
      "type": "event"
    },
    {
      "anonymous": false,
      "inputs": [
        {
          "indexed": true,
          "internalType": "address",
          "name": "previousOwner",
          "type": "address"
        },
        {
          "indexed": true,
          "internalType": "address",
          "name": "newOwner",
          "type": "address"
        }
      ],
      "name": "OwnershipTransferred",
      "type": "event"
    },
    {
      "anonymous": false,
      "inputs": [
        {
          "indexed": true,
          "internalType": "address",
          "name": "erc20",
          "type": "address"
        }
      ],
      "name": "PeerLocalInitalized",
      "type": "event"
    },
    {
      "inputs": [
        {
          "internalType": "uint256",
          "name": "communityId",
          "type": "uint256"
        },
        {
          "internalType": "uint256",
          "name": "offerId",
          "type": "uint256"
        }
      ],
      "name": "acceptOffer",
      "outputs": [],
      "stateMutability": "nonpayable",
      "type": "function"
    },
    {
      "inputs": [
        {
          "internalType": "uint256",
          "name": "",
          "type": "uint256"
        }
      ],
      "name": "communities",
      "outputs": [
        {
          "internalType": "string",
          "name": "ipfsMetadata",
          "type": "string"
        },
        {
          "internalType": "uint256",
          "name": "stakingRequirement",
          "type": "uint256"
        },
        {
          "internalType": "address",
          "name": "owner",
          "type": "address"
        }
      ],
      "stateMutability": "view",
      "type": "function"
    },
    {
      "inputs": [
        {
          "internalType": "uint256",
          "name": "",
          "type": "uint256"
        },
        {
          "internalType": "uint256",
          "name": "",
          "type": "uint256"
        }
      ],
      "name": "communityMembers",
      "outputs": [
        {
          "internalType": "address",
          "name": "",
          "type": "address"
        }
      ],
      "stateMutability": "view",
      "type": "function"
    },
    {
      "inputs": [
        {
          "internalType": "string",
          "name": "ipfsMetadata",
          "type": "string"
        },
        {
          "internalType": "uint256",
          "name": "stakingRequirement",
          "type": "uint256"
        }
      ],
      "name": "createCommunity",
      "outputs": [],
      "stateMutability": "nonpayable",
      "type": "function"
    },
    {
      "inputs": [
        {
          "internalType": "uint256",
          "name": "communityId",
          "type": "uint256"
        },
        {
          "internalType": "string",
          "name": "metadata",
          "type": "string"
        },
        {
          "internalType": "uint256",
          "name": "reputationRequirement",
          "type": "uint256"
        },
        {
          "internalType": "uint256",
          "name": "stakingRequirement",
          "type": "uint256"
        }
      ],
      "name": "createOffer",
      "outputs": [],
      "stateMutability": "nonpayable",
      "type": "function"
    },
    {
      "inputs": [
        {
          "internalType": "uint256",
          "name": "communityId",
          "type": "uint256"
        },
        {
          "internalType": "bytes",
          "name": "signature",
          "type": "bytes"
        }
      ],
      "name": "joinCommunity",
      "outputs": [],
      "stateMutability": "nonpayable",
      "type": "function"
    },
    {
      "inputs": [
        {
          "internalType": "uint256",
          "name": "",
          "type": "uint256"
        }
      ],
      "name": "offerStatus",
      "outputs": [
        {
          "internalType": "string",
          "name": "",
          "type": "string"
        }
      ],
      "stateMutability": "view",
      "type": "function"
    },
    {
      "inputs": [
        {
          "internalType": "uint256",
          "name": "",
          "type": "uint256"
        },
        {
          "internalType": "uint256",
          "name": "",
          "type": "uint256"
        }
      ],
      "name": "offers",
      "outputs": [
        {
          "internalType": "address",
          "name": "owner",
          "type": "address"
        },
        {
          "internalType": "uint256",
          "name": "communityId",
          "type": "uint256"
        },
        {
          "internalType": "string",
          "name": "metadata",
          "type": "string"
        },
        {
          "internalType": "uint256",
          "name": "reputationRequirement",
          "type": "uint256"
        },
        {
          "internalType": "uint256",
          "name": "stakingRequirement",
          "type": "uint256"
        },
        {
          "internalType": "string",
          "name": "offerStatus",
          "type": "string"
        }
      ],
      "stateMutability": "view",
      "type": "function"
    },
    {
      "inputs": [],
      "name": "owner",
      "outputs": [
        {
          "internalType": "address",
          "name": "",
          "type": "address"
        }
      ],
      "stateMutability": "view",
      "type": "function"
    },
    {
      "inputs": [],
      "name": "renounceOwnership",
      "outputs": [],
      "stateMutability": "nonpayable",
      "type": "function"
    },
    {
      "inputs": [
        {
          "internalType": "address",
          "name": "",
          "type": "address"
        }
      ],
      "name": "reputation",
      "outputs": [
        {
          "internalType": "uint256",
          "name": "",
          "type": "uint256"
        }
      ],
      "stateMutability": "view",
      "type": "function"
    },
    {
      "inputs": [],
      "name": "token",
      "outputs": [
        {
          "internalType": "contract IERC20",
          "name": "",
          "type": "address"
        }
      ],
      "stateMutability": "view",
      "type": "function"
    },
    {
      "inputs": [
        {
          "internalType": "address",
          "name": "newOwner",
          "type": "address"
        }
      ],
      "name": "transferOwnership",
      "outputs": [],
      "stateMutability": "nonpayable",
      "type": "function"
    }
  ],
  "transactionHash": "0x3b67c98e39d21301e529691aaeef39a77d7b4a38af045270470889bb18dcde1d",
  "args": [
    "0xbb28804F238935eC0876153EEa7677549ed1F6dd"
  ],
  "numDeployments": 1,
  "solcInputHash": "2e5f4c1d4fc0bc2431eab0b41345268a",
  "bytecode": "0x60806040527f4920616d20746865206f776e6572206f66207468697320636f6d6d756e6974796001556000600455600060055534801561003e57600080fd5b506040516118ef3803806118ef83398101604081905261005d91610103565b610066336100b3565b600280546001600160a01b0319166001600160a01b0383169081179091556040517fcb880ce60e28c1cc24531731b8cd4417425fb64a20c0a4a43496376f1b7c606c90600090a250610133565b600080546001600160a01b038381166001600160a01b0319831681178455604051919092169283917f8be0079c531659141344cd1fd0a4f28419497f9722a3daafe3b4186f6b6457e09190a35050565b60006020828403121561011557600080fd5b81516001600160a01b038116811461012c57600080fd5b9392505050565b6117ad806101426000396000f3fe608060405234801561001057600080fd5b50600436106100df5760003560e01c806381257bd51161008c578063d843b2c711610066578063d843b2c7146101d2578063e590b56a146101f2578063f2fde38b14610214578063fc0c546a1461022757600080fd5b806381257bd5146101805780638da5cb5b14610193578063b9f79451146101a457600080fd5b806361c6a009116100bd57806361c6a00914610152578063715018a6146101655780637ee980091461016d57600080fd5b80631173648e146100e45780634d03a9a5146100f957806354d00c0414610127575b600080fd5b6100f76100f2366004611372565b61023a565b005b61010c6101073660046113b7565b61031c565b60405161011e96959493929190611426565b60405180910390f35b61013a6101353660046113b7565b610476565b6040516001600160a01b03909116815260200161011e565b6100f7610160366004611479565b6104ae565b6100f7610752565b6100f761017b3660046114d4565b610766565b6100f761018e3660046113b7565b61093a565b6000546001600160a01b031661013a565b6101c46101b236600461152b565b60086020526000908152604090205481565b60405190815260200161011e565b6101e56101e0366004611554565b610c90565b60405161011e919061156d565b610205610200366004611554565b610d2a565b60405161011e93929190611580565b6100f761022236600461152b565b610dde565b60025461013a906001600160a01b031681565b60408051606081018252838152602080820184905233828401526004546000908152600382529290922081518051929391926102799284920190611226565b50602082015160018201556040909101516002909101805473ffffffffffffffffffffffffffffffffffffffff19166001600160a01b03909216919091179055600480549060006102c9836115c8565b909155505060045433906102df90600190611601565b7ffbfec78961027d8919f53e6283bb0e6c6d4bc310e87697187bc641f241ea155f8484604051610310929190611618565b60405180910390a35050565b60066020908152600092835260408084209091529082529020805460018201546002830180546001600160a01b039093169391926103599061163a565b80601f01602080910402602001604051908101604052809291908181526020018280546103859061163a565b80156103d25780601f106103a7576101008083540402835291602001916103d2565b820191906000526020600020905b8154815290600101906020018083116103b557829003601f168201915b5050505050908060030154908060040154908060050180546103f39061163a565b80601f016020809104026020016040519081016040528092919081815260200182805461041f9061163a565b801561046c5780601f106104415761010080835404028352916020019161046c565b820191906000526020600020905b81548152906001019060200180831161044f57829003601f168201915b5050505050905086565b6007602052816000526040600020818154811061049257600080fd5b6000918252602090912001546001600160a01b03169150829050565b6000828152600360205260409020600201546001600160a01b03166104d282610e6e565b6001600160a01b03161461052d5760405162461bcd60e51b815260206004820152601160248201527f496e76616c6964207369676e617475726500000000000000000000000000000060448201526064015b60405180910390fd5b600082815260036020526040908190206001015460025491517f70a0823100000000000000000000000000000000000000000000000000000000815233600482015290916001600160a01b0316906370a0823190602401602060405180830381865afa1580156105a1573d6000803e3d6000fd5b505050506040513d601f19601f820116820180604052508101906105c59190611675565b10156106395760405162461bcd60e51b815260206004820152602660248201527f496e73756666696369656e742062616c616e636520746f206a6f696e20636f6d60448201527f6d756e69747900000000000000000000000000000000000000000000000000006064820152608401610524565b600254600083815260036020526040908190206001015490517f23b872dd00000000000000000000000000000000000000000000000000000000815233600482015230602482015260448101919091526001600160a01b03909116906323b872dd906064016020604051808303816000875af11580156106bd573d6000803e3d6000fd5b505050506040513d601f19601f820116820180604052508101906106e1919061168e565b5060008281526007602090815260408083208054600181018255908452918320909101805473ffffffffffffffffffffffffffffffffffffffff1916339081179091559051909184917f17671f80466a04ae9525dbdb041b26d88ef566a69866f8bd126b07df7c23ffb29190a35050565b61075a610ed8565b6107646000610f32565b565b336000908152600860205260409020548211156107eb5760405162461bcd60e51b815260206004820152602760248201527f496e73756666696369656e742072657075746174696f6e20746f20637265617460448201527f65206f66666572000000000000000000000000000000000000000000000000006064820152608401610524565b6001600560008282546107fe91906116b0565b90915550506040805160c0810182523381526020808201878152828401878152606084018790526080840186905284518086018652600781527f63726561746564000000000000000000000000000000000000000000000000008185015260a085015260008981526006845285812060055482528452949094208351815473ffffffffffffffffffffffffffffffffffffffff19166001600160a01b0390911617815590516001820155925180519293849390926108c3926002850192910190611226565b50606082015160038201556080820151600482015560a082015180516108f3916005840191602090910190611226565b50905050847f7fbda346a441a14329848f3b8275cceef226a832a7bd105f991a582389e50d146005548360405161092b9291906116c8565b60405180910390a25050505050565b60008281526006602090815260408083208484529091529081902060049081015460025492517f70a082310000000000000000000000000000000000000000000000000000000081523392810192909252916001600160a01b0316906370a0823190602401602060405180830381865afa1580156109bc573d6000803e3d6000fd5b505050506040513d601f19601f820116820180604052508101906109e09190611675565b1015610a535760405162461bcd60e51b8152602060048201526024808201527f496e73756666696369656e742062616c616e636520746f20616363657074206f60448201527f66666572000000000000000000000000000000000000000000000000000000006064820152608401610524565b60008281526006602090815260408083208484528252808320600301543384526008909252909120541015610af05760405162461bcd60e51b815260206004820152602760248201527f496e73756666696369656e742072657075746174696f6e20746f20616363657060448201527f74206f66666572000000000000000000000000000000000000000000000000006064820152608401610524565b60025460008381526006602090815260408083208584529091529081902060049081015491517f23b872dd000000000000000000000000000000000000000000000000000000008152339181019190915230602482015260448101919091526001600160a01b03909116906323b872dd906064016020604051808303816000875af1158015610b83573d6000803e3d6000fd5b505050506040513d601f19601f82011682018060405250810190610ba7919061168e565b50600254600083815260066020908152604080832085845290915290819020805460049182015492517fa9059cbb0000000000000000000000000000000000000000000000000000000081526001600160a01b0391821692810192909252602482019290925291169063a9059cbb906044016020604051808303816000875af1158015610c38573d6000803e3d6000fd5b505050506040513d601f19601f82011682018060405250810190610c5c919061168e565b506040513390829084907fcb229072cbcd1d5410a56504f86a872c0eac1578c7eb4463ec190b52d3b669e290600090a45050565b60096020526000908152604090208054610ca99061163a565b80601f0160208091040260200160405190810160405280929190818152602001828054610cd59061163a565b8015610d225780601f10610cf757610100808354040283529160200191610d22565b820191906000526020600020905b815481529060010190602001808311610d0557829003601f168201915b505050505081565b600360205260009081526040902080548190610d459061163a565b80601f0160208091040260200160405190810160405280929190818152602001828054610d719061163a565b8015610dbe5780601f10610d9357610100808354040283529160200191610dbe565b820191906000526020600020905b815481529060010190602001808311610da157829003601f168201915b5050505060018301546002909301549192916001600160a01b0316905083565b610de6610ed8565b6001600160a01b038116610e625760405162461bcd60e51b815260206004820152602660248201527f4f776e61626c653a206e6577206f776e657220697320746865207a65726f206160448201527f64647265737300000000000000000000000000000000000000000000000000006064820152608401610524565b610e6b81610f32565b50565b6000610ed2610ecc6001546040517f19457468657265756d205369676e6564204d6573736167653a0a3332000000006020820152603c8101829052600090605c01604051602081830303815290604052805190602001209050919050565b83610f8f565b92915050565b6000546001600160a01b031633146107645760405162461bcd60e51b815260206004820181905260248201527f4f776e61626c653a2063616c6c6572206973206e6f7420746865206f776e65726044820152606401610524565b600080546001600160a01b0383811673ffffffffffffffffffffffffffffffffffffffff19831681178455604051919092169283917f8be0079c531659141344cd1fd0a4f28419497f9722a3daafe3b4186f6b6457e09190a35050565b6000806000610f9e8585610fb3565b91509150610fab81610ff9565b509392505050565b600080825160411415610fea5760208301516040840151606085015160001a610fde87828585611162565b94509450505050610ff2565b506000905060025b9250929050565b600081600481111561100d5761100d611761565b14156110165750565b600181600481111561102a5761102a611761565b14156110785760405162461bcd60e51b815260206004820152601860248201527f45434453413a20696e76616c6964207369676e617475726500000000000000006044820152606401610524565b600281600481111561108c5761108c611761565b14156110da5760405162461bcd60e51b815260206004820152601f60248201527f45434453413a20696e76616c6964207369676e6174757265206c656e677468006044820152606401610524565b60038160048111156110ee576110ee611761565b1415610e6b5760405162461bcd60e51b815260206004820152602260248201527f45434453413a20696e76616c6964207369676e6174757265202773272076616c60448201527f75650000000000000000000000000000000000000000000000000000000000006064820152608401610524565b6000807f7fffffffffffffffffffffffffffffff5d576e7357a4501ddfe92f46681b20a0831115611199575060009050600361121d565b6040805160008082526020820180845289905260ff881692820192909252606081018690526080810185905260019060a0016020604051602081039080840390855afa1580156111ed573d6000803e3d6000fd5b5050604051601f1901519150506001600160a01b0381166112165760006001925092505061121d565b9150600090505b94509492505050565b8280546112329061163a565b90600052602060002090601f016020900481019282611254576000855561129a565b82601f1061126d57805160ff191683800117855561129a565b8280016001018555821561129a579182015b8281111561129a57825182559160200191906001019061127f565b506112a69291506112aa565b5090565b5b808211156112a657600081556001016112ab565b634e487b7160e01b600052604160045260246000fd5b600067ffffffffffffffff808411156112f0576112f06112bf565b604051601f8501601f19908116603f01168101908282118183101715611318576113186112bf565b8160405280935085815286868601111561133157600080fd5b858560208301376000602087830101525050509392505050565b600082601f83011261135c57600080fd5b61136b838335602085016112d5565b9392505050565b6000806040838503121561138557600080fd5b823567ffffffffffffffff81111561139c57600080fd5b6113a88582860161134b565b95602094909401359450505050565b600080604083850312156113ca57600080fd5b50508035926020909101359150565b6000815180845260005b818110156113ff576020818501810151868301820152016113e3565b81811115611411576000602083870101525b50601f01601f19169290920160200192915050565b6001600160a01b038716815285602082015260c06040820152600061144e60c08301876113d9565b85606084015284608084015282810360a084015261146c81856113d9565b9998505050505050505050565b6000806040838503121561148c57600080fd5b82359150602083013567ffffffffffffffff8111156114aa57600080fd5b8301601f810185136114bb57600080fd5b6114ca858235602084016112d5565b9150509250929050565b600080600080608085870312156114ea57600080fd5b84359350602085013567ffffffffffffffff81111561150857600080fd5b6115148782880161134b565b949794965050505060408301359260600135919050565b60006020828403121561153d57600080fd5b81356001600160a01b038116811461136b57600080fd5b60006020828403121561156657600080fd5b5035919050565b60208152600061136b60208301846113d9565b60608152600061159360608301866113d9565b90508360208301526001600160a01b0383166040830152949350505050565b634e487b7160e01b600052601160045260246000fd5b60007fffffffffffffffffffffffffffffffffffffffffffffffffffffffffffffffff8214156115fa576115fa6115b2565b5060010190565b600082821015611613576116136115b2565b500390565b60408152600061162b60408301856113d9565b90508260208301529392505050565b600181811c9082168061164e57607f821691505b6020821081141561166f57634e487b7160e01b600052602260045260246000fd5b50919050565b60006020828403121561168757600080fd5b5051919050565b6000602082840312156116a057600080fd5b8151801515811461136b57600080fd5b600082198211156116c3576116c36115b2565b500190565b828152604060208201526001600160a01b038251166040820152602082015160608201526000604083015160c060808401526117086101008401826113d9565b9050606084015160a0840152608084015160c084015260a08401517fffffffffffffffffffffffffffffffffffffffffffffffffffffffffffffffc08483030160e085015261175782826113d9565b9695505050505050565b634e487b7160e01b600052602160045260246000fdfea26469706673582212209e90b4dce631cc0b2b8fa90a10a2748ae24476de9126a799d056a8d105b3661364736f6c634300080a0033",
  "devdoc": {
    "kind": "dev",
    "methods": {
      "owner()": {
        "details": "Returns the address of the current owner."
      },
      "renounceOwnership()": {
        "details": "Leaves the contract without owner. It will not be possible to call `onlyOwner` functions anymore. Can only be called by the current owner. NOTE: Renouncing ownership will leave the contract without an owner, thereby removing any functionality that is only available to the owner."
      },
      "transferOwnership(address)": {
        "details": "Transfers ownership of the contract to a new account (`newOwner`). Can only be called by the current owner."
      }
    },
    "version": 1
  },
  "userdoc": {
    "kind": "user",
    "methods": {},
    "version": 1
  },
  "storageLayout": {
    "storage": [
      {
        "astId": 7,
        "contract": "contracts/PeerLocal.sol:PeerLocal",
        "label": "_owner",
        "offset": 0,
        "slot": "0",
        "type": "t_address"
      },
      {
        "astId": 2235,
        "contract": "contracts/PeerLocal.sol:PeerLocal",
        "label": "MESSAGE_TO_BE_SIGNED_BY_COMMUNIT_OWNER",
        "offset": 0,
        "slot": "1",
        "type": "t_bytes32"
      },
      {
        "astId": 2295,
        "contract": "contracts/PeerLocal.sol:PeerLocal",
        "label": "token",
        "offset": 0,
        "slot": "2",
        "type": "t_contract(IERC20)777"
      },
      {
        "astId": 2300,
        "contract": "contracts/PeerLocal.sol:PeerLocal",
        "label": "communities",
        "offset": 0,
        "slot": "3",
        "type": "t_mapping(t_uint256,t_struct(Community)2242_storage)"
      },
      {
        "astId": 2303,
        "contract": "contracts/PeerLocal.sol:PeerLocal",
        "label": "communityCounter",
        "offset": 0,
        "slot": "4",
        "type": "t_uint256"
      },
      {
        "astId": 2306,
        "contract": "contracts/PeerLocal.sol:PeerLocal",
        "label": "offerCounter",
        "offset": 0,
        "slot": "5",
        "type": "t_uint256"
      },
      {
        "astId": 2313,
        "contract": "contracts/PeerLocal.sol:PeerLocal",
        "label": "offers",
        "offset": 0,
        "slot": "6",
        "type": "t_mapping(t_uint256,t_mapping(t_uint256,t_struct(Offer)2255_storage))"
      },
      {
        "astId": 2318,
        "contract": "contracts/PeerLocal.sol:PeerLocal",
        "label": "communityMembers",
        "offset": 0,
        "slot": "7",
        "type": "t_mapping(t_uint256,t_array(t_address)dyn_storage)"
      },
      {
        "astId": 2322,
        "contract": "contracts/PeerLocal.sol:PeerLocal",
        "label": "reputation",
        "offset": 0,
        "slot": "8",
        "type": "t_mapping(t_address,t_uint256)"
      },
      {
        "astId": 2326,
        "contract": "contracts/PeerLocal.sol:PeerLocal",
        "label": "offerStatus",
        "offset": 0,
        "slot": "9",
        "type": "t_mapping(t_uint256,t_string_storage)"
      }
    ],
    "types": {
      "t_address": {
        "encoding": "inplace",
        "label": "address",
        "numberOfBytes": "20"
      },
      "t_array(t_address)dyn_storage": {
        "base": "t_address",
        "encoding": "dynamic_array",
        "label": "address[]",
        "numberOfBytes": "32"
      },
      "t_bytes32": {
        "encoding": "inplace",
        "label": "bytes32",
        "numberOfBytes": "32"
      },
      "t_contract(IERC20)777": {
        "encoding": "inplace",
        "label": "contract IERC20",
        "numberOfBytes": "20"
      },
      "t_mapping(t_address,t_uint256)": {
        "encoding": "mapping",
        "key": "t_address",
        "label": "mapping(address => uint256)",
        "numberOfBytes": "32",
        "value": "t_uint256"
      },
      "t_mapping(t_uint256,t_array(t_address)dyn_storage)": {
        "encoding": "mapping",
        "key": "t_uint256",
        "label": "mapping(uint256 => address[])",
        "numberOfBytes": "32",
        "value": "t_array(t_address)dyn_storage"
      },
      "t_mapping(t_uint256,t_mapping(t_uint256,t_struct(Offer)2255_storage))": {
        "encoding": "mapping",
        "key": "t_uint256",
        "label": "mapping(uint256 => mapping(uint256 => struct PeerLocal.Offer))",
        "numberOfBytes": "32",
        "value": "t_mapping(t_uint256,t_struct(Offer)2255_storage)"
      },
      "t_mapping(t_uint256,t_string_storage)": {
        "encoding": "mapping",
        "key": "t_uint256",
        "label": "mapping(uint256 => string)",
        "numberOfBytes": "32",
        "value": "t_string_storage"
      },
      "t_mapping(t_uint256,t_struct(Community)2242_storage)": {
        "encoding": "mapping",
        "key": "t_uint256",
        "label": "mapping(uint256 => struct PeerLocal.Community)",
        "numberOfBytes": "32",
        "value": "t_struct(Community)2242_storage"
      },
      "t_mapping(t_uint256,t_struct(Offer)2255_storage)": {
        "encoding": "mapping",
        "key": "t_uint256",
        "label": "mapping(uint256 => struct PeerLocal.Offer)",
        "numberOfBytes": "32",
        "value": "t_struct(Offer)2255_storage"
      },
      "t_string_storage": {
        "encoding": "bytes",
        "label": "string",
        "numberOfBytes": "32"
      },
      "t_struct(Community)2242_storage": {
        "encoding": "inplace",
        "label": "struct PeerLocal.Community",
        "members": [
          {
            "astId": 2237,
            "contract": "contracts/PeerLocal.sol:PeerLocal",
            "label": "ipfsMetadata",
            "offset": 0,
            "slot": "0",
            "type": "t_string_storage"
          },
          {
            "astId": 2239,
            "contract": "contracts/PeerLocal.sol:PeerLocal",
            "label": "stakingRequirement",
            "offset": 0,
            "slot": "1",
            "type": "t_uint256"
          },
          {
            "astId": 2241,
            "contract": "contracts/PeerLocal.sol:PeerLocal",
            "label": "owner",
            "offset": 0,
            "slot": "2",
            "type": "t_address"
          }
        ],
        "numberOfBytes": "96"
      },
      "t_struct(Offer)2255_storage": {
        "encoding": "inplace",
        "label": "struct PeerLocal.Offer",
        "members": [
          {
            "astId": 2244,
            "contract": "contracts/PeerLocal.sol:PeerLocal",
            "label": "owner",
            "offset": 0,
            "slot": "0",
            "type": "t_address"
          },
          {
            "astId": 2246,
            "contract": "contracts/PeerLocal.sol:PeerLocal",
            "label": "communityId",
            "offset": 0,
            "slot": "1",
            "type": "t_uint256"
          },
          {
            "astId": 2248,
            "contract": "contracts/PeerLocal.sol:PeerLocal",
            "label": "metadata",
            "offset": 0,
            "slot": "2",
            "type": "t_string_storage"
          },
          {
            "astId": 2250,
            "contract": "contracts/PeerLocal.sol:PeerLocal",
            "label": "reputationRequirement",
            "offset": 0,
            "slot": "3",
            "type": "t_uint256"
          },
          {
            "astId": 2252,
            "contract": "contracts/PeerLocal.sol:PeerLocal",
            "label": "stakingRequirement",
            "offset": 0,
            "slot": "4",
            "type": "t_uint256"
          },
          {
            "astId": 2254,
            "contract": "contracts/PeerLocal.sol:PeerLocal",
            "label": "offerStatus",
            "offset": 0,
            "slot": "5",
            "type": "t_string_storage"
          }
        ],
        "numberOfBytes": "192"
      },
      "t_uint256": {
        "encoding": "inplace",
        "label": "uint256",
        "numberOfBytes": "32"
      }
    }
  }
}