{
  "address": "0x9A90f394b6de7E462669413fEf6D3e644B7Dd0E5",
  "abi": [
    {
      "inputs": [
        {
          "internalType": "contract IERC20",
          "name": "_token",
          "type": "address"
        }
      ],
      "stateMutability": "nonpayable",
      "type": "constructor"
    },
    {
      "anonymous": false,
      "inputs": [
        {
          "indexed": true,
          "internalType": "uint256",
          "name": "communityId",
          "type": "uint256"
        },
        {
          "indexed": false,
          "internalType": "string",
          "name": "ipfsMetadata",
          "type": "string"
        },
        {
          "indexed": false,
          "internalType": "uint256",
          "name": "stakingRequirement",
          "type": "uint256"
        },
        {
          "indexed": true,
          "internalType": "address",
          "name": "owner",
          "type": "address"
        }
      ],
      "name": "CommunityCreated",
      "type": "event"
    },
    {
      "anonymous": false,
      "inputs": [
        {
          "indexed": true,
          "internalType": "uint256",
          "name": "communityId",
          "type": "uint256"
        },
        {
          "indexed": true,
          "internalType": "address",
          "name": "member",
          "type": "address"
        }
      ],
      "name": "MemberJoinedCommunity",
      "type": "event"
    },
    {
      "anonymous": false,
      "inputs": [
        {
          "indexed": true,
          "internalType": "uint256",
          "name": "communityId",
          "type": "uint256"
        },
        {
          "indexed": true,
          "internalType": "uint256",
          "name": "offerId",
          "type": "uint256"
        },
        {
          "indexed": true,
          "internalType": "address",
          "name": "member",
          "type": "address"
        }
      ],
      "name": "OfferAccepted",
      "type": "event"
    },
    {
      "anonymous": false,
      "inputs": [
        {
          "indexed": true,
          "internalType": "uint256",
          "name": "communityId",
          "type": "uint256"
        },
        {
          "indexed": false,
          "internalType": "uint256",
          "name": "offerId",
          "type": "uint256"
        },
        {
          "indexed": true,
          "internalType": "address",
          "name": "owner",
          "type": "address"
        },
        {
          "indexed": false,
          "internalType": "string",
          "name": "metadata",
          "type": "string"
        },
        {
          "indexed": false,
          "internalType": "uint256",
          "name": "reputationRequirement",
          "type": "uint256"
        },
        {
          "indexed": false,
          "internalType": "uint256",
          "name": "stakingRequirement",
          "type": "uint256"
        }
      ],
      "name": "OfferCreated",
      "type": "event"
    },
    {
      "anonymous": false,
      "inputs": [
        {
          "indexed": true,
          "internalType": "address",
          "name": "previousOwner",
          "type": "address"
        },
        {
          "indexed": true,
          "internalType": "address",
          "name": "newOwner",
          "type": "address"
        }
      ],
      "name": "OwnershipTransferred",
      "type": "event"
    },
    {
      "inputs": [
        {
          "internalType": "uint256",
          "name": "communityId",
          "type": "uint256"
        },
        {
          "internalType": "uint256",
          "name": "offerId",
          "type": "uint256"
        }
      ],
      "name": "acceptOffer",
      "outputs": [],
      "stateMutability": "nonpayable",
      "type": "function"
    },
    {
      "inputs": [
        {
          "internalType": "uint256",
          "name": "",
          "type": "uint256"
        }
      ],
      "name": "communities",
      "outputs": [
        {
          "internalType": "string",
          "name": "ipfsMetadata",
          "type": "string"
        },
        {
          "internalType": "uint256",
          "name": "stakingRequirement",
          "type": "uint256"
        },
        {
          "internalType": "address",
          "name": "owner",
          "type": "address"
        }
      ],
      "stateMutability": "view",
      "type": "function"
    },
    {
      "inputs": [
        {
          "internalType": "uint256",
          "name": "",
          "type": "uint256"
        },
        {
          "internalType": "uint256",
          "name": "",
          "type": "uint256"
        }
      ],
      "name": "communityMembers",
      "outputs": [
        {
          "internalType": "address",
          "name": "",
          "type": "address"
        }
      ],
      "stateMutability": "view",
      "type": "function"
    },
    {
      "inputs": [
        {
          "internalType": "string",
          "name": "ipfsMetadata",
          "type": "string"
        },
        {
          "internalType": "uint256",
          "name": "stakingRequirement",
          "type": "uint256"
        }
      ],
      "name": "createCommunity",
      "outputs": [],
      "stateMutability": "nonpayable",
      "type": "function"
    },
    {
      "inputs": [
        {
          "internalType": "uint256",
          "name": "communityId",
          "type": "uint256"
        },
        {
          "internalType": "string",
          "name": "metadata",
          "type": "string"
        },
        {
          "internalType": "uint256",
          "name": "reputationRequirement",
          "type": "uint256"
        },
        {
          "internalType": "uint256",
          "name": "stakingRequirement",
          "type": "uint256"
        }
      ],
      "name": "createOffer",
      "outputs": [],
      "stateMutability": "nonpayable",
      "type": "function"
    },
    {
      "inputs": [
        {
          "internalType": "uint256",
          "name": "communityId",
          "type": "uint256"
        },
        {
          "internalType": "bytes",
          "name": "signature",
          "type": "bytes"
        }
      ],
      "name": "joinCommunity",
      "outputs": [],
      "stateMutability": "nonpayable",
      "type": "function"
    },
    {
      "inputs": [
        {
          "internalType": "uint256",
          "name": "",
          "type": "uint256"
        },
        {
          "internalType": "uint256",
          "name": "",
          "type": "uint256"
        }
      ],
      "name": "offers",
      "outputs": [
        {
          "internalType": "address",
          "name": "owner",
          "type": "address"
        },
        {
          "internalType": "uint256",
          "name": "communityId",
          "type": "uint256"
        },
        {
          "internalType": "string",
          "name": "metadata",
          "type": "string"
        },
        {
          "internalType": "uint256",
          "name": "reputationRequirement",
          "type": "uint256"
        },
        {
          "internalType": "uint256",
          "name": "stakingRequirement",
          "type": "uint256"
        }
      ],
      "stateMutability": "view",
      "type": "function"
    },
    {
      "inputs": [],
      "name": "owner",
      "outputs": [
        {
          "internalType": "address",
          "name": "",
          "type": "address"
        }
      ],
      "stateMutability": "view",
      "type": "function"
    },
    {
      "inputs": [],
      "name": "renounceOwnership",
      "outputs": [],
      "stateMutability": "nonpayable",
      "type": "function"
    },
    {
      "inputs": [
        {
          "internalType": "address",
          "name": "",
          "type": "address"
        }
      ],
      "name": "reputation",
      "outputs": [
        {
          "internalType": "uint256",
          "name": "",
          "type": "uint256"
        }
      ],
      "stateMutability": "view",
      "type": "function"
    },
    {
      "inputs": [],
      "name": "token",
      "outputs": [
        {
          "internalType": "contract IERC20",
          "name": "",
          "type": "address"
        }
      ],
      "stateMutability": "view",
      "type": "function"
    },
    {
      "inputs": [
        {
          "internalType": "address",
          "name": "newOwner",
          "type": "address"
        }
      ],
      "name": "transferOwnership",
      "outputs": [],
      "stateMutability": "nonpayable",
      "type": "function"
    }
  ],
  "transactionHash": "0xce71d8eecd8e474b6e5418e2bb6c4e47862bc06a335a40a53981299f64e7f95d",
  "args": [
    "0x5d00fab5f2F97C4D682C1053cDCAA59c2c37900D"
  ],
  "numDeployments": 1,
  "solcInputHash": "f954db72eb2eb9e01b365c92896e80ae",
  "bytecode": "0x60806040527f4920616d20746865206f776e6572206f66207468697320636f6d6d756e697479600155600060045534801561003957600080fd5b5060405161176f38038061176f833981016040819052610058916100d6565b61006133610086565b600280546001600160a01b0319166001600160a01b0392909216919091179055610106565b600080546001600160a01b038381166001600160a01b0319831681178455604051919092169283917f8be0079c531659141344cd1fd0a4f28419497f9722a3daafe3b4186f6b6457e09190a35050565b6000602082840312156100e857600080fd5b81516001600160a01b03811681146100ff57600080fd5b9392505050565b61165a806101156000396000f3fe608060405234801561001057600080fd5b50600436106100d45760003560e01c806381257bd511610081578063e590b56a1161005b578063e590b56a146101c6578063f2fde38b146101e8578063fc0c546a146101fb57600080fd5b806381257bd5146101745780638da5cb5b14610187578063b9f794511461019857600080fd5b806361c6a009116100b257806361c6a00914610146578063715018a6146101595780637ee980091461016157600080fd5b80631173648e146100d95780634d03a9a5146100ee57806354d00c041461011b575b600080fd5b6100ec6100e73660046112a0565b61020e565b005b6101016100fc3660046112e5565b6102f0565b604051610112959493929190611354565b60405180910390f35b61012e6101293660046112e5565b6103d2565b6040516001600160a01b039091168152602001610112565b6100ec610154366004611390565b61040a565b6100ec6106cf565b6100ec61016f3660046113eb565b6106e3565b6100ec6101823660046112e5565b610877565b6000546001600160a01b031661012e565b6101b86101a6366004611442565b60076020526000908152604090205481565b604051908152602001610112565b6101d96101d436600461146b565b610c58565b60405161011293929190611484565b6100ec6101f6366004611442565b610d0c565b60025461012e906001600160a01b031681565b604080516060810182528381526020808201849052338284015260045460009081526003825292909220815180519293919261024d9284920190611154565b50602082015160018201556040909101516002909101805473ffffffffffffffffffffffffffffffffffffffff19166001600160a01b039092169190911790556004805490600061029d836114cc565b909155505060045433906102b390600190611505565b7ffbfec78961027d8919f53e6283bb0e6c6d4bc310e87697187bc641f241ea155f84846040516102e492919061151c565b60405180910390a35050565b6005602052816000526040600020818154811061030c57600080fd5b60009182526020909120600590910201805460018201546002830180546001600160a01b039093169550909350906103439061153e565b80601f016020809104026020016040519081016040528092919081815260200182805461036f9061153e565b80156103bc5780601f10610391576101008083540402835291602001916103bc565b820191906000526020600020905b81548152906001019060200180831161039f57829003601f168201915b5050505050908060030154908060040154905085565b600660205281600052604060002081815481106103ee57600080fd5b6000918252602090912001546001600160a01b03169150829050565b6000828152600360205260409020600201546001600160a01b031661042e82610d9c565b6001600160a01b0316146104895760405162461bcd60e51b815260206004820152601160248201527f496e76616c6964207369676e617475726500000000000000000000000000000060448201526064015b60405180910390fd5b600082815260036020526040908190206001015460025491517f70a0823100000000000000000000000000000000000000000000000000000000815233600482015290916001600160a01b0316906370a0823190602401602060405180830381865afa1580156104fd573d6000803e3d6000fd5b505050506040513d601f19601f820116820180604052508101906105219190611579565b10156105955760405162461bcd60e51b815260206004820152602660248201527f496e73756666696369656e742062616c616e636520746f206a6f696e20636f6d60448201527f6d756e69747900000000000000000000000000000000000000000000000000006064820152608401610480565b600254600083815260036020526040908190206001015490517f23b872dd00000000000000000000000000000000000000000000000000000000815233600482015230602482015260448101919091526001600160a01b03909116906323b872dd906064016020604051808303816000875af1158015610619573d6000803e3d6000fd5b505050506040513d601f19601f8201168201806040525081019061063d9190611592565b50600082815260066020908152604080832080546001818101835591855283852001805473ffffffffffffffffffffffffffffffffffffffff1916339081179091558452600790925282208054919290916106999084906115b4565b9091555050604051339083907f17671f80466a04ae9525dbdb041b26d88ef566a69866f8bd126b07df7c23ffb290600090a35050565b6106d7610e06565b6106e16000610e60565b565b336000908152600760205260409020548211156107685760405162461bcd60e51b815260206004820152602760248201527f496e73756666696369656e742072657075746174696f6e20746f20637265617460448201527f65206f66666572000000000000000000000000000000000000000000000000006064820152608401610480565b6000848152600560208181526040808420815160a0810183523381528084018a8152928101898152606082018990526080820188905282546001808201855593885296859020825197909602909501805473ffffffffffffffffffffffffffffffffffffffff19166001600160a01b03909716969096178655915190850155915180519293926107fe9260028501920190611154565b5060608201516003820155608090910151600490910155600084815260056020526040902054339085907f509f6f816df8f2b55b331ffd559c6edbb3c059eace439bbc7b2c6af9b5caa6fb9061085690600190611505565b86868660405161086994939291906115cc565b60405180910390a350505050565b6000828152600560205260409020805482908110610897576108976115f8565b6000918252602090912060046005909202018101546002546040517f70a08231000000000000000000000000000000000000000000000000000000008152339381019390935290916001600160a01b03909116906370a0823190602401602060405180830381865afa158015610911573d6000803e3d6000fd5b505050506040513d601f19601f820116820180604052508101906109359190611579565b10156109a85760405162461bcd60e51b8152602060048201526024808201527f496e73756666696369656e742062616c616e636520746f20616363657074206f60448201527f66666572000000000000000000000000000000000000000000000000000000006064820152608401610480565b60008281526005602052604090208054829081106109c8576109c86115f8565b600091825260208083206003600590930201919091015433835260079091526040909120541015610a615760405162461bcd60e51b815260206004820152602760248201527f496e73756666696369656e742072657075746174696f6e20746f20616363657060448201527f74206f66666572000000000000000000000000000000000000000000000000006064820152608401610480565b600254600083815260056020526040902080546001600160a01b03909216916323b872dd91339130919086908110610a9b57610a9b6115f8565b9060005260206000209060050201600401546040518463ffffffff1660e01b8152600401610aea939291906001600160a01b039384168152919092166020820152604081019190915260600190565b6020604051808303816000875af1158015610b09573d6000803e3d6000fd5b505050506040513d601f19601f82011682018060405250810190610b2d9190611592565b50600254600083815260056020526040902080546001600160a01b039092169163a9059cbb919084908110610b6457610b646115f8565b6000918252602080832060059283020154878452919052604090912080546001600160a01b039092169185908110610b9e57610b9e6115f8565b9060005260206000209060050201600401546040518363ffffffff1660e01b8152600401610be19291906001600160a01b03929092168252602082015260400190565b6020604051808303816000875af1158015610c00573d6000803e3d6000fd5b505050506040513d601f19601f82011682018060405250810190610c249190611592565b506040513390829084907fcb229072cbcd1d5410a56504f86a872c0eac1578c7eb4463ec190b52d3b669e290600090a45050565b600360205260009081526040902080548190610c739061153e565b80601f0160208091040260200160405190810160405280929190818152602001828054610c9f9061153e565b8015610cec5780601f10610cc157610100808354040283529160200191610cec565b820191906000526020600020905b815481529060010190602001808311610ccf57829003601f168201915b5050505060018301546002909301549192916001600160a01b0316905083565b610d14610e06565b6001600160a01b038116610d905760405162461bcd60e51b815260206004820152602660248201527f4f776e61626c653a206e6577206f776e657220697320746865207a65726f206160448201527f64647265737300000000000000000000000000000000000000000000000000006064820152608401610480565b610d9981610e60565b50565b6000610e00610dfa6001546040517f19457468657265756d205369676e6564204d6573736167653a0a3332000000006020820152603c8101829052600090605c01604051602081830303815290604052805190602001209050919050565b83610ebd565b92915050565b6000546001600160a01b031633146106e15760405162461bcd60e51b815260206004820181905260248201527f4f776e61626c653a2063616c6c6572206973206e6f7420746865206f776e65726044820152606401610480565b600080546001600160a01b0383811673ffffffffffffffffffffffffffffffffffffffff19831681178455604051919092169283917f8be0079c531659141344cd1fd0a4f28419497f9722a3daafe3b4186f6b6457e09190a35050565b6000806000610ecc8585610ee1565b91509150610ed981610f27565b509392505050565b600080825160411415610f185760208301516040840151606085015160001a610f0c87828585611090565b94509450505050610f20565b506000905060025b9250929050565b6000816004811115610f3b57610f3b61160e565b1415610f445750565b6001816004811115610f5857610f5861160e565b1415610fa65760405162461bcd60e51b815260206004820152601860248201527f45434453413a20696e76616c6964207369676e617475726500000000000000006044820152606401610480565b6002816004811115610fba57610fba61160e565b14156110085760405162461bcd60e51b815260206004820152601f60248201527f45434453413a20696e76616c6964207369676e6174757265206c656e677468006044820152606401610480565b600381600481111561101c5761101c61160e565b1415610d995760405162461bcd60e51b815260206004820152602260248201527f45434453413a20696e76616c6964207369676e6174757265202773272076616c60448201527f75650000000000000000000000000000000000000000000000000000000000006064820152608401610480565b6000807f7fffffffffffffffffffffffffffffff5d576e7357a4501ddfe92f46681b20a08311156110c7575060009050600361114b565b6040805160008082526020820180845289905260ff881692820192909252606081018690526080810185905260019060a0016020604051602081039080840390855afa15801561111b573d6000803e3d6000fd5b5050604051601f1901519150506001600160a01b0381166111445760006001925092505061114b565b9150600090505b94509492505050565b8280546111609061153e565b90600052602060002090601f01602090048101928261118257600085556111c8565b82601f1061119b57805160ff19168380011785556111c8565b828001600101855582156111c8579182015b828111156111c85782518255916020019190600101906111ad565b506111d49291506111d8565b5090565b5b808211156111d457600081556001016111d9565b634e487b7160e01b600052604160045260246000fd5b600067ffffffffffffffff8084111561121e5761121e6111ed565b604051601f8501601f19908116603f01168101908282118183101715611246576112466111ed565b8160405280935085815286868601111561125f57600080fd5b858560208301376000602087830101525050509392505050565b600082601f83011261128a57600080fd5b61129983833560208501611203565b9392505050565b600080604083850312156112b357600080fd5b823567ffffffffffffffff8111156112ca57600080fd5b6112d685828601611279565b95602094909401359450505050565b600080604083850312156112f857600080fd5b50508035926020909101359150565b6000815180845260005b8181101561132d57602081850181015186830182015201611311565b8181111561133f576000602083870101525b50601f01601f19169290920160200192915050565b6001600160a01b038616815284602082015260a06040820152600061137c60a0830186611307565b606083019490945250608001529392505050565b600080604083850312156113a357600080fd5b82359150602083013567ffffffffffffffff8111156113c157600080fd5b8301601f810185136113d257600080fd5b6113e185823560208401611203565b9150509250929050565b6000806000806080858703121561140157600080fd5b84359350602085013567ffffffffffffffff81111561141f57600080fd5b61142b87828801611279565b949794965050505060408301359260600135919050565b60006020828403121561145457600080fd5b81356001600160a01b038116811461129957600080fd5b60006020828403121561147d57600080fd5b5035919050565b6060815260006114976060830186611307565b90508360208301526001600160a01b0383166040830152949350505050565b634e487b7160e01b600052601160045260246000fd5b60007fffffffffffffffffffffffffffffffffffffffffffffffffffffffffffffffff8214156114fe576114fe6114b6565b5060010190565b600082821015611517576115176114b6565b500390565b60408152600061152f6040830185611307565b90508260208301529392505050565b600181811c9082168061155257607f821691505b6020821081141561157357634e487b7160e01b600052602260045260246000fd5b50919050565b60006020828403121561158b57600080fd5b5051919050565b6000602082840312156115a457600080fd5b8151801515811461129957600080fd5b600082198211156115c7576115c76114b6565b500190565b8481526080602082015260006115e56080830186611307565b6040830194909452506060015292915050565b634e487b7160e01b600052603260045260246000fd5b634e487b7160e01b600052602160045260246000fdfea264697066735822122095a52e81041c77387201dee51150229cf65096d907d4ab39616952d05ba4898b64736f6c634300080a0033",
  "devdoc": {
    "kind": "dev",
    "methods": {
      "owner()": {
        "details": "Returns the address of the current owner."
      },
      "renounceOwnership()": {
        "details": "Leaves the contract without owner. It will not be possible to call `onlyOwner` functions anymore. Can only be called by the current owner. NOTE: Renouncing ownership will leave the contract without an owner, thereby removing any functionality that is only available to the owner."
      },
      "transferOwnership(address)": {
        "details": "Transfers ownership of the contract to a new account (`newOwner`). Can only be called by the current owner."
      }
    },
    "version": 1
  },
  "userdoc": {
    "kind": "user",
    "methods": {},
    "version": 1
  },
  "storageLayout": {
    "storage": [
      {
        "astId": 7,
        "contract": "contracts/PeerLocal.sol:PeerLocal",
        "label": "_owner",
        "offset": 0,
        "slot": "0",
        "type": "t_address"
      },
      {
        "astId": 1623,
        "contract": "contracts/PeerLocal.sol:PeerLocal",
        "label": "MESSAGE_TO_BE_SIGNED_BY_COMMUNIT_OWNER",
        "offset": 0,
        "slot": "1",
        "type": "t_bytes32"
      },
      {
        "astId": 1682,
        "contract": "contracts/PeerLocal.sol:PeerLocal",
        "label": "token",
        "offset": 0,
        "slot": "2",
        "type": "t_contract(IERC20)190"
      },
      {
        "astId": 1687,
        "contract": "contracts/PeerLocal.sol:PeerLocal",
        "label": "communities",
        "offset": 0,
        "slot": "3",
        "type": "t_mapping(t_uint256,t_struct(Community)1630_storage)"
      },
      {
        "astId": 1690,
        "contract": "contracts/PeerLocal.sol:PeerLocal",
        "label": "communityCounter",
        "offset": 0,
        "slot": "4",
        "type": "t_uint256"
      },
      {
        "astId": 1696,
        "contract": "contracts/PeerLocal.sol:PeerLocal",
        "label": "offers",
        "offset": 0,
        "slot": "5",
        "type": "t_mapping(t_uint256,t_array(t_struct(Offer)1641_storage)dyn_storage)"
      },
      {
        "astId": 1701,
        "contract": "contracts/PeerLocal.sol:PeerLocal",
        "label": "communityMembers",
        "offset": 0,
        "slot": "6",
        "type": "t_mapping(t_uint256,t_array(t_address)dyn_storage)"
      },
      {
        "astId": 1705,
        "contract": "contracts/PeerLocal.sol:PeerLocal",
        "label": "reputation",
        "offset": 0,
        "slot": "7",
        "type": "t_mapping(t_address,t_uint256)"
      }
    ],
    "types": {
      "t_address": {
        "encoding": "inplace",
        "label": "address",
        "numberOfBytes": "20"
      },
      "t_array(t_address)dyn_storage": {
        "base": "t_address",
        "encoding": "dynamic_array",
        "label": "address[]",
        "numberOfBytes": "32"
      },
      "t_array(t_struct(Offer)1641_storage)dyn_storage": {
        "base": "t_struct(Offer)1641_storage",
        "encoding": "dynamic_array",
        "label": "struct PeerLocal.Offer[]",
        "numberOfBytes": "32"
      },
      "t_bytes32": {
        "encoding": "inplace",
        "label": "bytes32",
        "numberOfBytes": "32"
      },
      "t_contract(IERC20)190": {
        "encoding": "inplace",
        "label": "contract IERC20",
        "numberOfBytes": "20"
      },
      "t_mapping(t_address,t_uint256)": {
        "encoding": "mapping",
        "key": "t_address",
        "label": "mapping(address => uint256)",
        "numberOfBytes": "32",
        "value": "t_uint256"
      },
      "t_mapping(t_uint256,t_array(t_address)dyn_storage)": {
        "encoding": "mapping",
        "key": "t_uint256",
        "label": "mapping(uint256 => address[])",
        "numberOfBytes": "32",
        "value": "t_array(t_address)dyn_storage"
      },
      "t_mapping(t_uint256,t_array(t_struct(Offer)1641_storage)dyn_storage)": {
        "encoding": "mapping",
        "key": "t_uint256",
        "label": "mapping(uint256 => struct PeerLocal.Offer[])",
        "numberOfBytes": "32",
        "value": "t_array(t_struct(Offer)1641_storage)dyn_storage"
      },
      "t_mapping(t_uint256,t_struct(Community)1630_storage)": {
        "encoding": "mapping",
        "key": "t_uint256",
        "label": "mapping(uint256 => struct PeerLocal.Community)",
        "numberOfBytes": "32",
        "value": "t_struct(Community)1630_storage"
      },
      "t_string_storage": {
        "encoding": "bytes",
        "label": "string",
        "numberOfBytes": "32"
      },
      "t_struct(Community)1630_storage": {
        "encoding": "inplace",
        "label": "struct PeerLocal.Community",
        "members": [
          {
            "astId": 1625,
            "contract": "contracts/PeerLocal.sol:PeerLocal",
            "label": "ipfsMetadata",
            "offset": 0,
            "slot": "0",
            "type": "t_string_storage"
          },
          {
            "astId": 1627,
            "contract": "contracts/PeerLocal.sol:PeerLocal",
            "label": "stakingRequirement",
            "offset": 0,
            "slot": "1",
            "type": "t_uint256"
          },
          {
            "astId": 1629,
            "contract": "contracts/PeerLocal.sol:PeerLocal",
            "label": "owner",
            "offset": 0,
            "slot": "2",
            "type": "t_address"
          }
        ],
        "numberOfBytes": "96"
      },
      "t_struct(Offer)1641_storage": {
        "encoding": "inplace",
        "label": "struct PeerLocal.Offer",
        "members": [
          {
            "astId": 1632,
            "contract": "contracts/PeerLocal.sol:PeerLocal",
            "label": "owner",
            "offset": 0,
            "slot": "0",
            "type": "t_address"
          },
          {
            "astId": 1634,
            "contract": "contracts/PeerLocal.sol:PeerLocal",
            "label": "communityId",
            "offset": 0,
            "slot": "1",
            "type": "t_uint256"
          },
          {
            "astId": 1636,
            "contract": "contracts/PeerLocal.sol:PeerLocal",
            "label": "metadata",
            "offset": 0,
            "slot": "2",
            "type": "t_string_storage"
          },
          {
            "astId": 1638,
            "contract": "contracts/PeerLocal.sol:PeerLocal",
            "label": "reputationRequirement",
            "offset": 0,
            "slot": "3",
            "type": "t_uint256"
          },
          {
            "astId": 1640,
            "contract": "contracts/PeerLocal.sol:PeerLocal",
            "label": "stakingRequirement",
            "offset": 0,
            "slot": "4",
            "type": "t_uint256"
          }
        ],
        "numberOfBytes": "160"
      },
      "t_uint256": {
        "encoding": "inplace",
        "label": "uint256",
        "numberOfBytes": "32"
      }
    }
  }
}