{
  "address": "0xdae3020087e1C56716C2b37D6bAFD46584177D21",
  "abi": [
    {
      "inputs": [
        {
          "internalType": "address",
          "name": "_reputationTokenAddress",
          "type": "address"
        }
      ],
      "stateMutability": "nonpayable",
      "type": "constructor"
    },
    {
      "anonymous": false,
      "inputs": [
        {
          "indexed": true,
          "internalType": "uint256",
          "name": "communityId",
          "type": "uint256"
        },
        {
          "indexed": false,
          "internalType": "string",
          "name": "ipfsMetadata",
          "type": "string"
        },
        {
          "indexed": true,
          "internalType": "address",
          "name": "owner",
          "type": "address"
        },
        {
          "indexed": false,
          "internalType": "contract IERC20",
          "name": "stakingToken",
          "type": "address"
        },
        {
          "indexed": false,
          "internalType": "uint256",
          "name": "stakingRequirement",
          "type": "uint256"
        }
      ],
      "name": "CommunityCreated",
      "type": "event"
    },
    {
      "anonymous": false,
      "inputs": [
        {
          "indexed": true,
          "internalType": "uint256",
          "name": "communityId",
          "type": "uint256"
        },
        {
          "indexed": true,
          "internalType": "address",
          "name": "member",
          "type": "address"
        }
      ],
      "name": "MemberJoinedCommunity",
      "type": "event"
    },
    {
      "anonymous": false,
      "inputs": [
        {
          "indexed": true,
          "internalType": "uint256",
          "name": "communityId",
          "type": "uint256"
        },
        {
          "indexed": true,
          "internalType": "uint256",
          "name": "offerId",
          "type": "uint256"
        },
        {
          "indexed": true,
          "internalType": "address",
          "name": "member",
          "type": "address"
        }
      ],
      "name": "OfferAccepted",
      "type": "event"
    },
    {
      "anonymous": false,
      "inputs": [
        {
          "indexed": true,
          "internalType": "uint256",
          "name": "communityId",
          "type": "uint256"
        },
        {
          "indexed": true,
          "internalType": "uint256",
          "name": "offerId",
          "type": "uint256"
        },
        {
          "indexed": true,
          "internalType": "address",
          "name": "member",
          "type": "address"
        },
        {
          "indexed": false,
          "internalType": "bool",
          "name": "result",
          "type": "bool"
        }
      ],
      "name": "OfferClosed",
      "type": "event"
    },
    {
      "anonymous": false,
      "inputs": [
        {
          "indexed": true,
          "internalType": "uint256",
          "name": "communityId",
          "type": "uint256"
        },
        {
          "indexed": false,
          "internalType": "uint256",
          "name": "offerId",
          "type": "uint256"
        },
        {
          "components": [
            {
              "internalType": "address",
              "name": "owner",
              "type": "address"
            },
            {
              "internalType": "uint256",
              "name": "communityId",
              "type": "uint256"
            },
            {
              "internalType": "string",
              "name": "metadata",
              "type": "string"
            },
            {
              "internalType": "uint256",
              "name": "reputationRequirement",
              "type": "uint256"
            },
            {
              "internalType": "uint256",
              "name": "stakingRequirement",
              "type": "uint256"
            },
            {
              "internalType": "uint8",
              "name": "offerStatus",
              "type": "uint8"
            }
          ],
          "indexed": false,
          "internalType": "struct PeerLocal.Offer",
          "name": "newOffer",
          "type": "tuple"
        }
      ],
      "name": "OfferCreated",
      "type": "event"
    },
    {
      "anonymous": false,
      "inputs": [
        {
          "indexed": true,
          "internalType": "address",
          "name": "previousOwner",
          "type": "address"
        },
        {
          "indexed": true,
          "internalType": "address",
          "name": "newOwner",
          "type": "address"
        }
      ],
      "name": "OwnershipTransferred",
      "type": "event"
    },
    {
      "anonymous": false,
      "inputs": [
        {
          "indexed": true,
          "internalType": "address",
          "name": "erc20",
          "type": "address"
        }
      ],
      "name": "PeerLocalInitalized",
      "type": "event"
    },
    {
      "anonymous": false,
      "inputs": [
        {
          "indexed": false,
          "internalType": "uint256",
          "name": "burnAmount",
          "type": "uint256"
        }
      ],
      "name": "ReputationTokenBurn",
      "type": "event"
    },
    {
      "anonymous": false,
      "inputs": [
        {
          "indexed": true,
          "internalType": "address",
          "name": "member",
          "type": "address"
        },
        {
          "indexed": false,
          "internalType": "uint256",
          "name": "mintAmount",
          "type": "uint256"
        }
      ],
      "name": "ReputationTokenMint",
      "type": "event"
    },
    {
      "anonymous": false,
      "inputs": [
        {
          "indexed": false,
          "internalType": "uint256",
          "name": "communityId",
          "type": "uint256"
        },
        {
          "indexed": false,
          "internalType": "address",
          "name": "tokenDepositAAVE",
          "type": "address"
        },
        {
          "indexed": false,
          "internalType": "uint256",
          "name": "amountDeposited",
          "type": "uint256"
        },
        {
          "indexed": false,
          "internalType": "uint256",
          "name": "totalAmountInAAVE",
          "type": "uint256"
        }
      ],
      "name": "TokenDepositAAVE",
      "type": "event"
    },
    {
      "anonymous": false,
      "inputs": [
        {
          "indexed": false,
          "internalType": "uint256",
          "name": "communityId",
          "type": "uint256"
        },
        {
          "indexed": false,
          "internalType": "address",
          "name": "tokenRedeemAAVE",
          "type": "address"
        },
        {
          "indexed": false,
          "internalType": "uint256",
          "name": "amountRedeem",
          "type": "uint256"
        },
        {
          "indexed": false,
          "internalType": "uint256",
          "name": "totalAmountInAAVE",
          "type": "uint256"
        }
      ],
      "name": "TokenRedeemAAVE",
      "type": "event"
    },
    {
      "anonymous": false,
      "inputs": [
        {
          "indexed": true,
          "internalType": "address",
          "name": "member",
          "type": "address"
        },
        {
          "indexed": false,
          "internalType": "uint256",
          "name": "stakingRequirementReturned",
          "type": "uint256"
        }
      ],
      "name": "collateralTokenReturned",
      "type": "event"
    },
    {
      "anonymous": false,
      "inputs": [
        {
          "indexed": true,
          "internalType": "address",
          "name": "member",
          "type": "address"
        },
        {
          "indexed": false,
          "internalType": "uint256",
          "name": "stakingRequirementStaked",
          "type": "uint256"
        }
      ],
      "name": "collateralTokenStaked",
      "type": "event"
    },
    {
      "anonymous": false,
      "inputs": [
        {
          "indexed": true,
          "internalType": "address",
          "name": "member",
          "type": "address"
        },
        {
          "indexed": false,
          "internalType": "uint256",
          "name": "reputationRequirementReturned",
          "type": "uint256"
        }
      ],
      "name": "reputationTokenReturned",
      "type": "event"
    },
    {
      "anonymous": false,
      "inputs": [
        {
          "indexed": true,
          "internalType": "address",
          "name": "member",
          "type": "address"
        },
        {
          "indexed": false,
          "internalType": "uint256",
          "name": "reputationRequirementStaked",
          "type": "uint256"
        }
      ],
      "name": "reputationTokenStaked",
      "type": "event"
    },
    {
      "inputs": [
        {
          "internalType": "uint256",
          "name": "",
          "type": "uint256"
        },
        {
          "internalType": "address",
          "name": "",
          "type": "address"
        }
      ],
      "name": "aaveTokenSuppliedByCommunity",
      "outputs": [
        {
          "internalType": "uint256",
          "name": "",
          "type": "uint256"
        }
      ],
      "stateMutability": "view",
      "type": "function"
    },
    {
      "inputs": [
        {
          "internalType": "uint256",
          "name": "_communityId",
          "type": "uint256"
        },
        {
          "internalType": "uint256",
          "name": "_offerId",
          "type": "uint256"
        }
      ],
      "name": "acceptOffer",
      "outputs": [],
      "stateMutability": "nonpayable",
      "type": "function"
    },
    {
      "inputs": [
        {
          "internalType": "uint256",
          "name": "",
          "type": "uint256"
        }
      ],
      "name": "communities",
      "outputs": [
        {
          "internalType": "string",
          "name": "ipfsMetadata",
          "type": "string"
        },
        {
          "internalType": "uint256",
          "name": "stakingRequirement",
          "type": "uint256"
        },
        {
          "internalType": "address",
          "name": "owner",
          "type": "address"
        },
        {
          "internalType": "contract IERC20",
          "name": "stakingToken",
          "type": "address"
        }
      ],
      "stateMutability": "view",
      "type": "function"
    },
    {
      "inputs": [
        {
          "internalType": "uint256",
          "name": "",
          "type": "uint256"
        },
        {
          "internalType": "uint256",
          "name": "",
          "type": "uint256"
        }
      ],
      "name": "communityMembers",
      "outputs": [
        {
          "internalType": "address",
          "name": "",
          "type": "address"
        }
      ],
      "stateMutability": "view",
      "type": "function"
    },
    {
      "inputs": [
        {
          "internalType": "string",
          "name": "_ipfsMetadata",
          "type": "string"
        },
        {
          "internalType": "contract IERC20",
          "name": "_stakingToken",
          "type": "address"
        },
        {
          "internalType": "uint256",
          "name": "_stakingRequirement",
          "type": "uint256"
        }
      ],
      "name": "createCommunity",
      "outputs": [],
      "stateMutability": "nonpayable",
      "type": "function"
    },
    {
      "inputs": [
        {
          "internalType": "uint256",
          "name": "_communityId",
          "type": "uint256"
        },
        {
          "internalType": "string",
          "name": "_metadata",
          "type": "string"
        },
        {
          "internalType": "uint256",
          "name": "_reputationRequirement",
          "type": "uint256"
        },
        {
          "internalType": "uint256",
          "name": "_stakingRequirement",
          "type": "uint256"
        }
      ],
      "name": "createOffer",
      "outputs": [],
      "stateMutability": "nonpayable",
      "type": "function"
    },
    {
      "inputs": [
        {
          "internalType": "uint256",
          "name": "_communityId",
          "type": "uint256"
        },
        {
          "internalType": "uint256",
          "name": "_offerId",
          "type": "uint256"
        },
        {
          "internalType": "bool",
          "name": "_finalResult",
          "type": "bool"
        }
      ],
      "name": "endOffer",
      "outputs": [],
      "stateMutability": "nonpayable",
      "type": "function"
    },
    {
      "inputs": [
        {
          "internalType": "uint256",
          "name": "_communityId",
          "type": "uint256"
        },
        {
          "internalType": "bytes",
          "name": "_signature",
          "type": "bytes"
        }
      ],
      "name": "joinCommunity",
      "outputs": [],
      "stateMutability": "nonpayable",
      "type": "function"
    },
    {
      "inputs": [
        {
          "internalType": "uint256",
          "name": "",
          "type": "uint256"
        },
        {
          "internalType": "uint256",
          "name": "",
          "type": "uint256"
        }
      ],
      "name": "offers",
      "outputs": [
        {
          "internalType": "address",
          "name": "owner",
          "type": "address"
        },
        {
          "internalType": "uint256",
          "name": "communityId",
          "type": "uint256"
        },
        {
          "internalType": "string",
          "name": "metadata",
          "type": "string"
        },
        {
          "internalType": "uint256",
          "name": "reputationRequirement",
          "type": "uint256"
        },
        {
          "internalType": "uint256",
          "name": "stakingRequirement",
          "type": "uint256"
        },
        {
          "internalType": "uint8",
          "name": "offerStatus",
          "type": "uint8"
        }
      ],
      "stateMutability": "view",
      "type": "function"
    },
    {
      "inputs": [],
      "name": "owner",
      "outputs": [
        {
          "internalType": "address",
          "name": "",
          "type": "address"
        }
      ],
      "stateMutability": "view",
      "type": "function"
    },
    {
      "inputs": [],
      "name": "renounceOwnership",
      "outputs": [],
      "stateMutability": "nonpayable",
      "type": "function"
    },
    {
      "inputs": [],
      "name": "reputationToken",
      "outputs": [
        {
          "internalType": "contract ReputationToken",
          "name": "",
          "type": "address"
        }
      ],
      "stateMutability": "view",
      "type": "function"
    },
    {
      "inputs": [
        {
          "internalType": "address",
          "name": "newOwner",
          "type": "address"
        }
      ],
      "name": "transferOwnership",
      "outputs": [],
      "stateMutability": "nonpayable",
      "type": "function"
    }
  ],
  "transactionHash": "0x443ab67f69615f21af2c5df2b2eee645a57cc2d0987f37392cd4bb351fb7764d",
  "args": [
    "0xC227A899fF5d27a04F5B1b34dFe487875D85f1e1"
  ],
  "numDeployments": 9,
  "solcInputHash": "5e88fc7914cd9f4678b123380323b20e",
  "bytecode": "0x60806040527f4920616d20746865206f776e6572206f66207468697320636f6d6d756e69747960015560006003819055600455600580546001600160a01b03191673794a61358d6845594f94dc1db02a252b5b4814ad1790553480156200006557600080fd5b5060405162001fca38038062001fca833981016040819052620000889162000131565b6200009333620000e1565b600280546001600160a01b0319166001600160a01b0383169081179091556040517fcb880ce60e28c1cc24531731b8cd4417425fb64a20c0a4a43496376f1b7c606c90600090a25062000163565b600080546001600160a01b038381166001600160a01b0319831681178455604051919092169283917f8be0079c531659141344cd1fd0a4f28419497f9722a3daafe3b4186f6b6457e09190a35050565b6000602082840312156200014457600080fd5b81516001600160a01b03811681146200015c57600080fd5b9392505050565b611e5780620001736000396000f3fe608060405234801561001057600080fd5b50600436106100df5760003560e01c80637ee980091161008c578063e590b56a11610066578063e590b56a146101b3578063effb8ed5146101d6578063f1d434f31461020f578063f2fde38b1461022257600080fd5b80637ee980091461017c57806381257bd51461018f5780638da5cb5b146101a257600080fd5b806361c6a009116100bd57806361c6a0091461014c578063715018a61461016157806379e5692d1461016957600080fd5b8063275bbe9b146100e45780634d03a9a51461011457806354d00c0414610139575b600080fd5b6002546100f7906001600160a01b031681565b6040516001600160a01b0390911681526020015b60405180910390f35b61012761012236600461190e565b610235565b60405161010b9695949392919061197d565b6100f761014736600461190e565b61030c565b61015f61015a366004611a52565b610344565b005b61015f6104cd565b61015f610177366004611abb565b6104e1565b61015f61018a366004611b1b565b610958565b61015f61019d36600461190e565b610a82565b6000546001600160a01b03166100f7565b6101c66101c1366004611b72565b610fb1565b60405161010b9493929190611b8b565b6102016101e4366004611bd9565b600960209081526000928352604080842090915290825290205481565b60405190815260200161010b565b61015f61021d366004611c09565b61106e565b61015f610230366004611c63565b6111b4565b60076020908152600092835260408084209091529082529020805460018201546002830180546001600160a01b0390931693919261027290611c80565b80601f016020809104026020016040519081016040528092919081815260200182805461029e90611c80565b80156102eb5780601f106102c0576101008083540402835291602001916102eb565b820191906000526020600020905b8154815290600101906020018083116102ce57829003601f168201915b50505050600383015460048401546005909401549293909290915060ff1686565b6008602052816000526040600020818154811061032857600080fd5b6000918252602090912001546001600160a01b03169150829050565b6000828152600660205260409020600201546001600160a01b031661036882611244565b6001600160a01b0316146103c35760405162461bcd60e51b815260206004820152601160248201527f496e76616c6964207369676e617475726500000000000000000000000000000060448201526064015b60405180910390fd5b60008281526008602090815260408083208054600181018255908452918320909101805473ffffffffffffffffffffffffffffffffffffffff1916339081179091559051909184917f17671f80466a04ae9525dbdb041b26d88ef566a69866f8bd126b07df7c23ffb29190a3600082815260066020526040902060010154156104c9576005546000838152600660205260409020600381015460019091015461047a926001600160a01b0390811692169085611287565b6000828152600660205260409081902060010154905133917fd47d6e34c57586c24fe7588e65d959fc25fa177da5bba5ec15f2fdb1e11d7133916104c091815260200190565b60405180910390a25b5050565b6104d56113ba565b6104df6000611414565b565b600083815260076020908152604080832085845290915290206005015460ff166002146105505760405162461bcd60e51b815260206004820152600d60248201527f496e76616c6964206f666665720000000000000000000000000000000000000060448201526064016103ba565b600181151514156108135760008381526007602090815260408083208584529091529020600401541561066d576000838152600660209081526040808320600301546007835281842086855290925291829020600490810154925163a9059cbb60e01b8152339181019190915260248101929092526001600160a01b03169063a9059cbb906044016020604051808303816000875af11580156105f7573d6000803e3d6000fd5b505050506040513d601f19601f8201168201806040525081019061061b9190611cbb565b50600083815260076020908152604080832085845282529182902060040154915191825233917f366864c39bf476e82e1ef8d71d42583011c00f95bf165671915a3e6958e7da54910160405180910390a25b6000838152600760209081526040808320858452909152902060030154156107755760025460008481526007602090815260408083208684529091529081902060030154905163a9059cbb60e01b815233600482015260248101919091526001600160a01b039091169063a9059cbb906044016020604051808303816000875af11580156106ff573d6000803e3d6000fd5b505050506040513d601f19601f820116820180604052508101906107239190611cbb565b50600083815260076020908152604080832085845282529182902060030154915191825233917f2224ca924709a35e1b561c0026b4ce0717ca182a9f0e17cd84cb66c2ef1151a3910160405180910390a25b610780336001611471565b60008381526007602090815260408083208584529091529020546107ae906001600160a01b03166001611471565b6000838152600760209081526040808320858452825291829020600501805460ff191660031790559051600181523391849186917f9ea156d53fad9c27622ffd56aa9bc696ec34df009847b7ea0053e876493d392391015b60405180910390a4505050565b60008381526006602090815260408083206003015460078352818420868552909252918290208054600491820154935163a9059cbb60e01b81526001600160a01b0391821692810192909252602482019390935291169063a9059cbb906044016020604051808303816000875af1158015610892573d6000803e3d6000fd5b505050506040513d601f19601f820116820180604052508101906108b69190611cbb565b506000838152600760209081526040808320858452909152902060030154156108ff5760008381526007602090815260408083208584529091529020600301546108ff9061152b565b60008381526007602090815260408083208584528252808320600501805460ff19166003179055519182523391849186917f9ea156d53fad9c27622ffd56aa9bc696ec34df009847b7ea0053e876493d39239101610806565b60016004600082825461096b9190611cee565b90915550506040805160c08101825233815260208082018781528284018781526060840187905260808401869052600160a0850181905260008a81526007855286812060045482528552959095208451815473ffffffffffffffffffffffffffffffffffffffff19166001600160a01b0390911617815591519482019490945592518051929384939092610a06926002850192910190611875565b50606082015181600301556080820151816004015560a08201518160050160006101000a81548160ff021916908360ff160217905550905050847f55efeccbeabb2045864982a38e914330c836b620cf549bb24186b38075dc157e60045483604051610a73929190611d06565b60405180910390a25050505050565b600082815260076020908152604080832084845282528083206004908101548685526006909352928190206003015490517f70a08231000000000000000000000000000000000000000000000000000000008152339381019390935290916001600160a01b03909116906370a0823190602401602060405180830381865afa158015610b12573d6000803e3d6000fd5b505050506040513d601f19601f82011682018060405250810190610b369190611d74565b1015610ba95760405162461bcd60e51b8152602060048201526024808201527f496e73756666696369656e742062616c616e636520746f20616363657074206f60448201527f666665720000000000000000000000000000000000000000000000000000000060648201526084016103ba565b600082815260076020908152604080832084845282528083206004908101548685526006909352928190206003015490517fdd62ed3e000000000000000000000000000000000000000000000000000000008152339381019390935230602484015290916001600160a01b039091169063dd62ed3e90604401602060405180830381865afa158015610c3f573d6000803e3d6000fd5b505050506040513d601f19601f82011682018060405250810190610c639190611d74565b1015610cd75760405162461bcd60e51b815260206004820152602660248201527f496e73756666696369656e7420616c6c6f77616e636520746f2061636365707460448201527f206f66666572000000000000000000000000000000000000000000000000000060648201526084016103ba565b600082815260076020908152604080832084845290915290206005015460ff16600114610d0357600080fd5b600082815260076020908152604080832084845290915290206004015415610e3457600082815260066020908152604080832060030154600783528184208585529092529182902060049081015492517f23b872dd000000000000000000000000000000000000000000000000000000008152339181019190915230602482015260448101929092526001600160a01b0316906323b872dd906064016020604051808303816000875af1158015610dbe573d6000803e3d6000fd5b505050506040513d601f19601f82011682018060405250810190610de29190611cbb565b50600082815260076020908152604080832084845282529182902060040154915191825233917fd47d6e34c57586c24fe7588e65d959fc25fa177da5bba5ec15f2fdb1e11d7133910160405180910390a25b600082815260076020908152604080832084845290915290206003015415610f5b576002546000838152600760209081526040808320858452909152908190206003015490517f23b872dd00000000000000000000000000000000000000000000000000000000815233600482015230602482015260448101919091526001600160a01b03909116906323b872dd906064016020604051808303816000875af1158015610ee5573d6000803e3d6000fd5b505050506040513d601f19601f82011682018060405250810190610f099190611cbb565b50600082815260076020908152604080832084845282529182902060030154915191825233917f4ab53c4c4f84e270095737ab2a3ba2eb02e6d8667c7331472c51ea74bd4bee19910160405180910390a25b6000828152600760209081526040808320848452909152808220600501805460ff19166002179055513391839185917fcb229072cbcd1d5410a56504f86a872c0eac1578c7eb4463ec190b52d3b669e291a45050565b600660205260009081526040902080548190610fcc90611c80565b80601f0160208091040260200160405190810160405280929190818152602001828054610ff890611c80565b80156110455780601f1061101a57610100808354040283529160200191611045565b820191906000526020600020905b81548152906001019060200180831161102857829003601f168201915b5050505060018301546002840154600390940154929390926001600160a01b0391821692501684565b60408051608081018252848152602080820184905233828401526001600160a01b03851660608301526003546000908152600682529290922081518051929391926110bc9284920190611875565b5060208201516001820155604082015160028201805473ffffffffffffffffffffffffffffffffffffffff199081166001600160a01b039384161790915560609093015160039283018054909416911617909155805490600061111e83611d8d565b909155505060038054600090815260086020908152604082208054600181810183559184529190922001805473ffffffffffffffffffffffffffffffffffffffff19163390811790915591546111749190611dc6565b7f2b54949ce1a6f18197972a885c752f7a56329bb5a402b642121821a6a16264058585856040516111a793929190611ddd565b60405180910390a3505050565b6111bc6113ba565b6001600160a01b0381166112385760405162461bcd60e51b815260206004820152602660248201527f4f776e61626c653a206e6577206f776e657220697320746865207a65726f206160448201527f646472657373000000000000000000000000000000000000000000000000000060648201526084016103ba565b61124181611414565b50565b6001547f19457468657265756d205369676e6564204d6573736167653a0a3332000000006000908152601c91909152603c812061128190836115de565b92915050565b6040517f617ba0370000000000000000000000000000000000000000000000000000000081526001600160a01b038481166004830152602482018490523060448301526000606483015285169063617ba03790608401600060405180830381600087803b1580156112f757600080fd5b505af115801561130b573d6000803e3d6000fd5b50505060008281526009602090815260408083206001600160a01b038816845290915281208054859350909190611343908490611cee565b909155505060008181526009602090815260408083206001600160a01b0387168085529083529281902054815185815292830193909352810184905260608101919091527f8de46938afbd373c548b6b106ac647371154bc351f6f0e9f340126469c9757b39060800160405180910390a150505050565b6000546001600160a01b031633146104df5760405162461bcd60e51b815260206004820181905260248201527f4f776e61626c653a2063616c6c6572206973206e6f7420746865206f776e657260448201526064016103ba565b600080546001600160a01b0383811673ffffffffffffffffffffffffffffffffffffffff19831681178455604051919092169283917f8be0079c531659141344cd1fd0a4f28419497f9722a3daafe3b4186f6b6457e09190a35050565b6002546040517f40c10f190000000000000000000000000000000000000000000000000000000081526001600160a01b03848116600483015260248201849052909116906340c10f1990604401600060405180830381600087803b1580156114d857600080fd5b505af11580156114ec573d6000803e3d6000fd5b50505050816001600160a01b03167f26564d184c5c1098164105a3b602b4a6f84f577ba7915d22da982427e4625c76826040516104c091815260200190565b6002546040517f42966c68000000000000000000000000000000000000000000000000000000008152600481018390526001600160a01b03909116906342966c6890602401600060405180830381600087803b15801561158a57600080fd5b505af115801561159e573d6000803e3d6000fd5b505050507f0c25d24798935c2d6ae2c2f59cf1631100478443c0a0f74abce4677bfab758e8816040516115d391815260200190565b60405180910390a150565b60008060006115ed8585611602565b915091506115fa81611648565b509392505050565b6000808251604114156116395760208301516040840151606085015160001a61162d878285856117b1565b94509450505050611641565b506000905060025b9250929050565b600081600481111561165c5761165c611e0b565b14156116655750565b600181600481111561167957611679611e0b565b14156116c75760405162461bcd60e51b815260206004820152601860248201527f45434453413a20696e76616c6964207369676e6174757265000000000000000060448201526064016103ba565b60028160048111156116db576116db611e0b565b14156117295760405162461bcd60e51b815260206004820152601f60248201527f45434453413a20696e76616c6964207369676e6174757265206c656e6774680060448201526064016103ba565b600381600481111561173d5761173d611e0b565b14156112415760405162461bcd60e51b815260206004820152602260248201527f45434453413a20696e76616c6964207369676e6174757265202773272076616c60448201527f756500000000000000000000000000000000000000000000000000000000000060648201526084016103ba565b6000807f7fffffffffffffffffffffffffffffff5d576e7357a4501ddfe92f46681b20a08311156117e8575060009050600361186c565b6040805160008082526020820180845289905260ff881692820192909252606081018690526080810185905260019060a0016020604051602081039080840390855afa15801561183c573d6000803e3d6000fd5b5050604051601f1901519150506001600160a01b0381166118655760006001925092505061186c565b9150600090505b94509492505050565b82805461188190611c80565b90600052602060002090601f0160209004810192826118a357600085556118e9565b82601f106118bc57805160ff19168380011785556118e9565b828001600101855582156118e9579182015b828111156118e95782518255916020019190600101906118ce565b506118f59291506118f9565b5090565b5b808211156118f557600081556001016118fa565b6000806040838503121561192157600080fd5b50508035926020909101359150565b6000815180845260005b818110156119565760208185018101518683018201520161193a565b81811115611968576000602083870101525b50601f01601f19169290920160200192915050565b6001600160a01b038716815285602082015260c0604082015260006119a560c0830187611930565b606083019590955250608081019290925260ff1660a0909101529392505050565b634e487b7160e01b600052604160045260246000fd5b600067ffffffffffffffff808411156119f7576119f76119c6565b604051601f8501601f19908116603f01168101908282118183101715611a1f57611a1f6119c6565b81604052809350858152868686011115611a3857600080fd5b858560208301376000602087830101525050509392505050565b60008060408385031215611a6557600080fd5b82359150602083013567ffffffffffffffff811115611a8357600080fd5b8301601f81018513611a9457600080fd5b611aa3858235602084016119dc565b9150509250929050565b801515811461124157600080fd5b600080600060608486031215611ad057600080fd5b83359250602084013591506040840135611ae981611aad565b809150509250925092565b600082601f830112611b0557600080fd5b611b14838335602085016119dc565b9392505050565b60008060008060808587031215611b3157600080fd5b84359350602085013567ffffffffffffffff811115611b4f57600080fd5b611b5b87828801611af4565b949794965050505060408301359260600135919050565b600060208284031215611b8457600080fd5b5035919050565b608081526000611b9e6080830187611930565b6020830195909552506001600160a01b0392831660408201529116606090910152919050565b6001600160a01b038116811461124157600080fd5b60008060408385031215611bec57600080fd5b823591506020830135611bfe81611bc4565b809150509250929050565b600080600060608486031215611c1e57600080fd5b833567ffffffffffffffff811115611c3557600080fd5b611c4186828701611af4565b9350506020840135611c5281611bc4565b929592945050506040919091013590565b600060208284031215611c7557600080fd5b8135611b1481611bc4565b600181811c90821680611c9457607f821691505b60208210811415611cb557634e487b7160e01b600052602260045260246000fd5b50919050565b600060208284031215611ccd57600080fd5b8151611b1481611aad565b634e487b7160e01b600052601160045260246000fd5b60008219821115611d0157611d01611cd8565b500190565b828152604060208201526001600160a01b038251166040820152602082015160608201526000604083015160c06080840152611d46610100840182611930565b9050606084015160a0840152608084015160c084015260ff60a08501511660e0840152809150509392505050565b600060208284031215611d8657600080fd5b5051919050565b60007fffffffffffffffffffffffffffffffffffffffffffffffffffffffffffffffff821415611dbf57611dbf611cd8565b5060010190565b600082821015611dd857611dd8611cd8565b500390565b606081526000611df06060830186611930565b6001600160a01b039490941660208301525060400152919050565b634e487b7160e01b600052602160045260246000fdfea2646970667358221220dfb6c640101854391b695f62991113791f17e6fb2b30189737116600c929f0a664736f6c634300080b0033",
  "devdoc": {
    "kind": "dev",
    "methods": {
      "owner()": {
        "details": "Returns the address of the current owner."
      },
      "renounceOwnership()": {
        "details": "Leaves the contract without owner. It will not be possible to call `onlyOwner` functions. Can only be called by the current owner. NOTE: Renouncing ownership will leave the contract without an owner, thereby disabling any functionality that is only available to the owner."
      },
      "transferOwnership(address)": {
        "details": "Transfers ownership of the contract to a new account (`newOwner`). Can only be called by the current owner."
      }
    },
    "version": 1
  },
  "userdoc": {
    "kind": "user",
    "methods": {},
    "version": 1
  },
  "storageLayout": {
    "storage": [
      {
        "astId": 1207,
        "contract": "contracts/PeerLocal.sol:PeerLocal",
        "label": "_owner",
        "offset": 0,
        "slot": "0",
        "type": "t_address"
      },
      {
        "astId": 3603,
        "contract": "contracts/PeerLocal.sol:PeerLocal",
        "label": "MESSAGE_TO_BE_SIGNED_BY_COMMUNIT_OWNER",
        "offset": 0,
        "slot": "1",
        "type": "t_bytes32"
      },
      {
        "astId": 3606,
        "contract": "contracts/PeerLocal.sol:PeerLocal",
        "label": "reputationToken",
        "offset": 0,
        "slot": "2",
        "type": "t_contract(ReputationToken)4435"
      },
      {
        "astId": 3736,
        "contract": "contracts/PeerLocal.sol:PeerLocal",
        "label": "communitiesCounter",
        "offset": 0,
        "slot": "3",
        "type": "t_uint256"
      },
      {
        "astId": 3739,
        "contract": "contracts/PeerLocal.sol:PeerLocal",
        "label": "offerCounter",
        "offset": 0,
        "slot": "4",
        "type": "t_uint256"
      },
      {
        "astId": 3742,
        "contract": "contracts/PeerLocal.sol:PeerLocal",
        "label": "lendingPool",
        "offset": 0,
        "slot": "5",
        "type": "t_address"
      },
      {
        "astId": 3747,
        "contract": "contracts/PeerLocal.sol:PeerLocal",
        "label": "communities",
        "offset": 0,
        "slot": "6",
        "type": "t_mapping(t_uint256,t_struct(Community)3616_storage)"
      },
      {
        "astId": 3754,
        "contract": "contracts/PeerLocal.sol:PeerLocal",
        "label": "offers",
        "offset": 0,
        "slot": "7",
        "type": "t_mapping(t_uint256,t_mapping(t_uint256,t_struct(Offer)3629_storage))"
      },
      {
        "astId": 3759,
        "contract": "contracts/PeerLocal.sol:PeerLocal",
        "label": "communityMembers",
        "offset": 0,
        "slot": "8",
        "type": "t_mapping(t_uint256,t_array(t_address)dyn_storage)"
      },
      {
        "astId": 3765,
        "contract": "contracts/PeerLocal.sol:PeerLocal",
        "label": "aaveTokenSuppliedByCommunity",
        "offset": 0,
        "slot": "9",
        "type": "t_mapping(t_uint256,t_mapping(t_address,t_uint256))"
      }
    ],
    "types": {
      "t_address": {
        "encoding": "inplace",
        "label": "address",
        "numberOfBytes": "20"
      },
      "t_array(t_address)dyn_storage": {
        "base": "t_address",
        "encoding": "dynamic_array",
        "label": "address[]",
        "numberOfBytes": "32"
      },
      "t_bytes32": {
        "encoding": "inplace",
        "label": "bytes32",
        "numberOfBytes": "32"
      },
      "t_contract(IERC20)1977": {
        "encoding": "inplace",
        "label": "contract IERC20",
        "numberOfBytes": "20"
      },
      "t_contract(ReputationToken)4435": {
        "encoding": "inplace",
        "label": "contract ReputationToken",
        "numberOfBytes": "20"
      },
      "t_mapping(t_address,t_uint256)": {
        "encoding": "mapping",
        "key": "t_address",
        "label": "mapping(address => uint256)",
        "numberOfBytes": "32",
        "value": "t_uint256"
      },
      "t_mapping(t_uint256,t_array(t_address)dyn_storage)": {
        "encoding": "mapping",
        "key": "t_uint256",
        "label": "mapping(uint256 => address[])",
        "numberOfBytes": "32",
        "value": "t_array(t_address)dyn_storage"
      },
      "t_mapping(t_uint256,t_mapping(t_address,t_uint256))": {
        "encoding": "mapping",
        "key": "t_uint256",
        "label": "mapping(uint256 => mapping(address => uint256))",
        "numberOfBytes": "32",
        "value": "t_mapping(t_address,t_uint256)"
      },
      "t_mapping(t_uint256,t_mapping(t_uint256,t_struct(Offer)3629_storage))": {
        "encoding": "mapping",
        "key": "t_uint256",
        "label": "mapping(uint256 => mapping(uint256 => struct PeerLocal.Offer))",
        "numberOfBytes": "32",
        "value": "t_mapping(t_uint256,t_struct(Offer)3629_storage)"
      },
      "t_mapping(t_uint256,t_struct(Community)3616_storage)": {
        "encoding": "mapping",
        "key": "t_uint256",
        "label": "mapping(uint256 => struct PeerLocal.Community)",
        "numberOfBytes": "32",
        "value": "t_struct(Community)3616_storage"
      },
      "t_mapping(t_uint256,t_struct(Offer)3629_storage)": {
        "encoding": "mapping",
        "key": "t_uint256",
        "label": "mapping(uint256 => struct PeerLocal.Offer)",
        "numberOfBytes": "32",
        "value": "t_struct(Offer)3629_storage"
      },
      "t_string_storage": {
        "encoding": "bytes",
        "label": "string",
        "numberOfBytes": "32"
      },
      "t_struct(Community)3616_storage": {
        "encoding": "inplace",
        "label": "struct PeerLocal.Community",
        "members": [
          {
            "astId": 3608,
            "contract": "contracts/PeerLocal.sol:PeerLocal",
            "label": "ipfsMetadata",
            "offset": 0,
            "slot": "0",
            "type": "t_string_storage"
          },
          {
            "astId": 3610,
            "contract": "contracts/PeerLocal.sol:PeerLocal",
            "label": "stakingRequirement",
            "offset": 0,
            "slot": "1",
            "type": "t_uint256"
          },
          {
            "astId": 3612,
            "contract": "contracts/PeerLocal.sol:PeerLocal",
            "label": "owner",
            "offset": 0,
            "slot": "2",
            "type": "t_address"
          },
          {
            "astId": 3615,
            "contract": "contracts/PeerLocal.sol:PeerLocal",
            "label": "stakingToken",
            "offset": 0,
            "slot": "3",
            "type": "t_contract(IERC20)1977"
          }
        ],
        "numberOfBytes": "128"
      },
      "t_struct(Offer)3629_storage": {
        "encoding": "inplace",
        "label": "struct PeerLocal.Offer",
        "members": [
          {
            "astId": 3618,
            "contract": "contracts/PeerLocal.sol:PeerLocal",
            "label": "owner",
            "offset": 0,
            "slot": "0",
            "type": "t_address"
          },
          {
            "astId": 3620,
            "contract": "contracts/PeerLocal.sol:PeerLocal",
            "label": "communityId",
            "offset": 0,
            "slot": "1",
            "type": "t_uint256"
          },
          {
            "astId": 3622,
            "contract": "contracts/PeerLocal.sol:PeerLocal",
            "label": "metadata",
            "offset": 0,
            "slot": "2",
            "type": "t_string_storage"
          },
          {
            "astId": 3624,
            "contract": "contracts/PeerLocal.sol:PeerLocal",
            "label": "reputationRequirement",
            "offset": 0,
            "slot": "3",
            "type": "t_uint256"
          },
          {
            "astId": 3626,
            "contract": "contracts/PeerLocal.sol:PeerLocal",
            "label": "stakingRequirement",
            "offset": 0,
            "slot": "4",
            "type": "t_uint256"
          },
          {
            "astId": 3628,
            "contract": "contracts/PeerLocal.sol:PeerLocal",
            "label": "offerStatus",
            "offset": 0,
            "slot": "5",
            "type": "t_uint8"
          }
        ],
        "numberOfBytes": "192"
      },
      "t_uint256": {
        "encoding": "inplace",
        "label": "uint256",
        "numberOfBytes": "32"
      },
      "t_uint8": {
        "encoding": "inplace",
        "label": "uint8",
        "numberOfBytes": "1"
      }
    }
  }
}