{
  "address": "0x9b55074AE5163dAf76EEF3afA1BE62fBA6c60fF1",
  "abi": [
    {
      "inputs": [
        {
          "internalType": "contract IERC20",
          "name": "_token",
          "type": "address"
        }
      ],
      "stateMutability": "nonpayable",
      "type": "constructor"
    },
    {
      "anonymous": false,
      "inputs": [
        {
          "indexed": true,
          "internalType": "uint256",
          "name": "communityId",
          "type": "uint256"
        },
        {
          "indexed": false,
          "internalType": "string",
          "name": "ipfsMetadata",
          "type": "string"
        },
        {
          "indexed": false,
          "internalType": "uint256",
          "name": "stakingRequirement",
          "type": "uint256"
        },
        {
          "indexed": true,
          "internalType": "address",
          "name": "owner",
          "type": "address"
        }
      ],
      "name": "CommunityCreated",
      "type": "event"
    },
    {
      "anonymous": false,
      "inputs": [
        {
          "indexed": true,
          "internalType": "uint256",
          "name": "communityId",
          "type": "uint256"
        },
        {
          "indexed": true,
          "internalType": "address",
          "name": "member",
          "type": "address"
        }
      ],
      "name": "MemberJoinedCommunity",
      "type": "event"
    },
    {
      "anonymous": false,
      "inputs": [
        {
          "indexed": true,
          "internalType": "uint256",
          "name": "communityId",
          "type": "uint256"
        },
        {
          "indexed": true,
          "internalType": "uint256",
          "name": "offerId",
          "type": "uint256"
        },
        {
          "indexed": true,
          "internalType": "address",
          "name": "member",
          "type": "address"
        }
      ],
      "name": "OfferAccepted",
      "type": "event"
    },
    {
      "anonymous": false,
      "inputs": [
        {
          "indexed": true,
          "internalType": "uint256",
          "name": "communityId",
          "type": "uint256"
        },
        {
          "indexed": true,
          "internalType": "uint256",
          "name": "offerId",
          "type": "uint256"
        },
        {
          "indexed": true,
          "internalType": "address",
          "name": "member",
          "type": "address"
        }
      ],
      "name": "OfferClosed",
      "type": "event"
    },
    {
      "anonymous": false,
      "inputs": [
        {
          "indexed": true,
          "internalType": "uint256",
          "name": "communityId",
          "type": "uint256"
        },
        {
          "indexed": false,
          "internalType": "uint256",
          "name": "offerId",
          "type": "uint256"
        },
        {
          "components": [
            {
              "internalType": "address",
              "name": "owner",
              "type": "address"
            },
            {
              "internalType": "uint256",
              "name": "communityId",
              "type": "uint256"
            },
            {
              "internalType": "string",
              "name": "metadata",
              "type": "string"
            },
            {
              "internalType": "uint256",
              "name": "reputationRequirement",
              "type": "uint256"
            },
            {
              "internalType": "uint256",
              "name": "stakingRequirement",
              "type": "uint256"
            },
            {
              "internalType": "uint8",
              "name": "offerStatus",
              "type": "uint8"
            }
          ],
          "indexed": false,
          "internalType": "struct PeerLocal.Offer",
          "name": "newOffer",
          "type": "tuple"
        }
      ],
      "name": "OfferCreated",
      "type": "event"
    },
    {
      "anonymous": false,
      "inputs": [
        {
          "indexed": true,
          "internalType": "address",
          "name": "previousOwner",
          "type": "address"
        },
        {
          "indexed": true,
          "internalType": "address",
          "name": "newOwner",
          "type": "address"
        }
      ],
      "name": "OwnershipTransferred",
      "type": "event"
    },
    {
      "anonymous": false,
      "inputs": [
        {
          "indexed": true,
          "internalType": "address",
          "name": "erc20",
          "type": "address"
        }
      ],
      "name": "PeerLocalInitalized",
      "type": "event"
    },
    {
      "anonymous": false,
      "inputs": [
        {
          "indexed": false,
          "internalType": "uint256",
          "name": "burnAmount",
          "type": "uint256"
        }
      ],
      "name": "ReputationTokenBurn",
      "type": "event"
    },
    {
      "anonymous": false,
      "inputs": [
        {
          "indexed": false,
          "internalType": "uint256",
          "name": "mintAmount",
          "type": "uint256"
        }
      ],
      "name": "ReputationTokenMint",
      "type": "event"
    },
    {
      "anonymous": false,
      "inputs": [
        {
          "indexed": false,
          "internalType": "uint256",
          "name": "stakingRequirementReturned",
          "type": "uint256"
        }
      ],
      "name": "collateralTokenReturned",
      "type": "event"
    },
    {
      "anonymous": false,
      "inputs": [
        {
          "indexed": false,
          "internalType": "uint256",
          "name": "stakingRequirementStaked",
          "type": "uint256"
        }
      ],
      "name": "collateralTokenStaked",
      "type": "event"
    },
    {
      "anonymous": false,
      "inputs": [
        {
          "indexed": false,
          "internalType": "uint256",
          "name": "reputationRequirementReturned",
          "type": "uint256"
        }
      ],
      "name": "reputationTokenReturned",
      "type": "event"
    },
    {
      "anonymous": false,
      "inputs": [
        {
          "indexed": false,
          "internalType": "uint256",
          "name": "reputationRequirementStaked",
          "type": "uint256"
        }
      ],
      "name": "reputationTokenStaked",
      "type": "event"
    },
    {
      "inputs": [
        {
          "internalType": "uint256",
          "name": "communityId",
          "type": "uint256"
        },
        {
          "internalType": "uint256",
          "name": "offerId",
          "type": "uint256"
        }
      ],
      "name": "acceptOffer",
      "outputs": [],
      "stateMutability": "nonpayable",
      "type": "function"
    },
    {
      "inputs": [
        {
          "internalType": "uint256",
          "name": "",
          "type": "uint256"
        }
      ],
      "name": "communities",
      "outputs": [
        {
          "internalType": "string",
          "name": "ipfsMetadata",
          "type": "string"
        },
        {
          "internalType": "uint256",
          "name": "stakingRequirement",
          "type": "uint256"
        },
        {
          "internalType": "address",
          "name": "owner",
          "type": "address"
        }
      ],
      "stateMutability": "view",
      "type": "function"
    },
    {
      "inputs": [
        {
          "internalType": "uint256",
          "name": "",
          "type": "uint256"
        },
        {
          "internalType": "uint256",
          "name": "",
          "type": "uint256"
        }
      ],
      "name": "communityMembers",
      "outputs": [
        {
          "internalType": "address",
          "name": "",
          "type": "address"
        }
      ],
      "stateMutability": "view",
      "type": "function"
    },
    {
      "inputs": [
        {
          "internalType": "string",
          "name": "ipfsMetadata",
          "type": "string"
        },
        {
          "internalType": "uint256",
          "name": "stakingRequirement",
          "type": "uint256"
        }
      ],
      "name": "createCommunity",
      "outputs": [],
      "stateMutability": "nonpayable",
      "type": "function"
    },
    {
      "inputs": [
        {
          "internalType": "uint256",
          "name": "communityId",
          "type": "uint256"
        },
        {
          "internalType": "string",
          "name": "metadata",
          "type": "string"
        },
        {
          "internalType": "uint256",
          "name": "reputationRequirement",
          "type": "uint256"
        },
        {
          "internalType": "uint256",
          "name": "stakingRequirement",
          "type": "uint256"
        }
      ],
      "name": "createOffer",
      "outputs": [],
      "stateMutability": "nonpayable",
      "type": "function"
    },
    {
      "inputs": [
        {
          "internalType": "uint256",
          "name": "communityId",
          "type": "uint256"
        },
        {
          "internalType": "uint256",
          "name": "offerId",
          "type": "uint256"
        },
        {
          "internalType": "bool",
          "name": "finalResult",
          "type": "bool"
        }
      ],
      "name": "endOffer",
      "outputs": [],
      "stateMutability": "nonpayable",
      "type": "function"
    },
    {
      "inputs": [
        {
          "internalType": "uint256",
          "name": "communityId",
          "type": "uint256"
        },
        {
          "internalType": "bytes",
          "name": "signature",
          "type": "bytes"
        }
      ],
      "name": "joinCommunity",
      "outputs": [],
      "stateMutability": "nonpayable",
      "type": "function"
    },
    {
      "inputs": [
        {
          "internalType": "uint256",
          "name": "",
          "type": "uint256"
        }
      ],
      "name": "offerStatus",
      "outputs": [
        {
          "internalType": "string",
          "name": "",
          "type": "string"
        }
      ],
      "stateMutability": "view",
      "type": "function"
    },
    {
      "inputs": [
        {
          "internalType": "uint256",
          "name": "",
          "type": "uint256"
        },
        {
          "internalType": "uint256",
          "name": "",
          "type": "uint256"
        }
      ],
      "name": "offers",
      "outputs": [
        {
          "internalType": "address",
          "name": "owner",
          "type": "address"
        },
        {
          "internalType": "uint256",
          "name": "communityId",
          "type": "uint256"
        },
        {
          "internalType": "string",
          "name": "metadata",
          "type": "string"
        },
        {
          "internalType": "uint256",
          "name": "reputationRequirement",
          "type": "uint256"
        },
        {
          "internalType": "uint256",
          "name": "stakingRequirement",
          "type": "uint256"
        },
        {
          "internalType": "uint8",
          "name": "offerStatus",
          "type": "uint8"
        }
      ],
      "stateMutability": "view",
      "type": "function"
    },
    {
      "inputs": [],
      "name": "owner",
      "outputs": [
        {
          "internalType": "address",
          "name": "",
          "type": "address"
        }
      ],
      "stateMutability": "view",
      "type": "function"
    },
    {
      "inputs": [],
      "name": "renounceOwnership",
      "outputs": [],
      "stateMutability": "nonpayable",
      "type": "function"
    },
    {
      "inputs": [
        {
          "internalType": "address",
          "name": "",
          "type": "address"
        }
      ],
      "name": "reputation",
      "outputs": [
        {
          "internalType": "uint256",
          "name": "",
          "type": "uint256"
        }
      ],
      "stateMutability": "view",
      "type": "function"
    },
    {
      "inputs": [],
      "name": "reputationToken",
      "outputs": [
        {
          "internalType": "contract ReputationToken",
          "name": "",
          "type": "address"
        }
      ],
      "stateMutability": "view",
      "type": "function"
    },
    {
      "inputs": [],
      "name": "token",
      "outputs": [
        {
          "internalType": "contract IERC20",
          "name": "",
          "type": "address"
        }
      ],
      "stateMutability": "view",
      "type": "function"
    },
    {
      "inputs": [
        {
          "internalType": "address",
          "name": "newOwner",
          "type": "address"
        }
      ],
      "name": "transferOwnership",
      "outputs": [],
      "stateMutability": "nonpayable",
      "type": "function"
    }
  ],
  "transactionHash": "0x0bd1d95fd4c2e8f2e4d9818d207d448452959935ac074eb9c1f2bcba9149b663",
  "args": [
    "0x17E486cdfC29449ce103c51587aC4E8B5542243C"
  ],
  "numDeployments": 1,
  "solcInputHash": "36181a0732fca6f2ad4de215166af219",
  "bytecode": "0x60806040527f4920616d20746865206f776e6572206f66207468697320636f6d6d756e697479600155600060055560006006553480156200003f57600080fd5b5060405162001eda38038062001eda833981016040819052620000629162000131565b6200006d33620000e1565b600380546001600160a01b0319166001600160a01b0383169081179091556040517fcb880ce60e28c1cc24531731b8cd4417425fb64a20c0a4a43496376f1b7c606c90600090a250600280546001600160a01b03191673e5397854e5efa5b487dcb5d39b1173608f74b72817905562000163565b600080546001600160a01b038381166001600160a01b0319831681178455604051919092169283917f8be0079c531659141344cd1fd0a4f28419497f9722a3daafe3b4186f6b6457e09190a35050565b6000602082840312156200014457600080fd5b81516001600160a01b03811681146200015c57600080fd5b9392505050565b611d6780620001736000396000f3fe608060405234801561001057600080fd5b50600436106100f55760003560e01c80637ee9800911610097578063d843b2c711610066578063d843b2c71461020a578063e590b56a1461022a578063f2fde38b1461024c578063fc0c546a1461025f57600080fd5b80637ee98009146101a557806381257bd5146101b85780638da5cb5b146101cb578063b9f79451146101dc57600080fd5b806354d00c04116100d357806354d00c041461016457806361c6a00914610177578063715018a61461018a57806379e5692d1461019257600080fd5b80631173648e146100fa578063275bbe9b1461010f5780634d03a9a51461013f575b600080fd5b61010d61010836600461191f565b610272565b005b600254610122906001600160a01b031681565b6040516001600160a01b0390911681526020015b60405180910390f35b61015261014d366004611964565b610354565b604051610136969594939291906119d3565b610122610172366004611964565b61042b565b61010d610185366004611a1c565b610463565b61010d6106f1565b61010d6101a0366004611a85565b610705565b61010d6101b3366004611abe565b610ad1565b61010d6101c6366004611964565b610c7a565b6000546001600160a01b0316610122565b6101fc6101ea366004611b15565b60096020526000908152604090205481565b604051908152602001610136565b61021d610218366004611b3e565b6110ce565b6040516101369190611b57565b61023d610238366004611b3e565b611168565b60405161013693929190611b6a565b61010d61025a366004611b15565b61121c565b600354610122906001600160a01b031681565b60408051606081018252838152602080820184905233828401526005546000908152600482529290922081518051929391926102b192849201906117d3565b50602082015160018201556040909101516002909101805473ffffffffffffffffffffffffffffffffffffffff19166001600160a01b039092169190911790556005805490600061030183611bb2565b9091555050600554339061031790600190611beb565b7ffbfec78961027d8919f53e6283bb0e6c6d4bc310e87697187bc641f241ea155f8484604051610348929190611c02565b60405180910390a35050565b60076020908152600092835260408084209091529082529020805460018201546002830180546001600160a01b0390931693919261039190611c24565b80601f01602080910402602001604051908101604052809291908181526020018280546103bd90611c24565b801561040a5780601f106103df5761010080835404028352916020019161040a565b820191906000526020600020905b8154815290600101906020018083116103ed57829003601f168201915b50505050600383015460048401546005909401549293909290915060ff1686565b6008602052816000526040600020818154811061044757600080fd5b6000918252602090912001546001600160a01b03169150829050565b6000828152600460205260409020600201546001600160a01b0316610487826112ac565b6001600160a01b0316146104e25760405162461bcd60e51b815260206004820152601160248201527f496e76616c6964207369676e617475726500000000000000000000000000000060448201526064015b60405180910390fd5b6000828152600460208190526040918290206001015460035492517f70a082310000000000000000000000000000000000000000000000000000000081523392810192909252916001600160a01b0316906370a0823190602401602060405180830381865afa158015610559573d6000803e3d6000fd5b505050506040513d601f19601f8201168201806040525081019061057d9190611c5f565b10156105f15760405162461bcd60e51b815260206004820152602660248201527f496e73756666696369656e742062616c616e636520746f206a6f696e20636f6d60448201527f6d756e697479000000000000000000000000000000000000000000000000000060648201526084016104d9565b60035460008381526004602081815260408084206001015481516323b872dd60e01b815233948101949094523060248501526044840152516001600160a01b03909416936323b872dd9360648085019483900301908290875af115801561065c573d6000803e3d6000fd5b505050506040513d601f19601f820116820180604052508101906106809190611c78565b5060008281526008602090815260408083208054600181018255908452918320909101805473ffffffffffffffffffffffffffffffffffffffff1916339081179091559051909184917f17671f80466a04ae9525dbdb041b26d88ef566a69866f8bd126b07df7c23ffb29190a35050565b6106f9611316565b6107036000611370565b565b600083815260076020908152604080832085845290915290206005015460ff1660021461073157600080fd5b600181151514156109e75760008381526007602090815260408083208584529091529020600401541561084c5760035460008481526007602090815260408083208684529091529081902060049081015491516323b872dd60e01b8152309181019190915233602482015260448101919091526001600160a01b03909116906323b872dd906064016020604051808303816000875af11580156107d8573d6000803e3d6000fd5b505050506040513d601f19601f820116820180604052508101906107fc9190611c78565b5060008381526007602090815260408083208584528252918290206004015491519182527f5e6eb5f7467398af516c045689b6b035886229fb5a6ff3b80b6f7594eaca4927910160405180910390a15b60008381526007602090815260408083208584529091529020600301541561095757600380546000858152600760209081526040808320878452909152908190209092015491516323b872dd60e01b815230600482015233602482015260448101929092526001600160a01b0316906323b872dd906064016020604051808303816000875af11580156108e3573d6000803e3d6000fd5b505050506040513d601f19601f820116820180604052508101906109079190611c78565b5060008381526007602090815260408083208584528252918290206003015491519182527f0586e9898d78bd1759d2bc354390a5f7ed97137e42411d38873ccde94209bec3910160405180910390a15b6109623360016113cd565b6000838152600760209081526040808320858452909152902054610990906001600160a01b031660016113cd565b6000838152600760209081526040808320858452909152808220600501805460ff19166003179055513391849186917f100d5ee299beaf44baf147b574a403d7754e7fcd2a2b658d7a3e8e2dd786d4ea91a4505050565b600354600084815260076020908152604080832086845290915290819020805460049182015492516323b872dd60e01b815230928101929092526001600160a01b03908116602483015260448201929092529116906323b872dd906064016020604051808303816000875af1158015610a64573d6000803e3d6000fd5b505050506040513d601f19601f82011682018060405250810190610a889190611c78565b5060008381526007602090815260408083208584529091529020600301541561099057600083815260076020908152604080832085845290915290206003015461099090611489565b33600090815260096020526040902054821115610b565760405162461bcd60e51b815260206004820152602760248201527f496e73756666696369656e742072657075746174696f6e20746f20637265617460448201527f65206f666665720000000000000000000000000000000000000000000000000060648201526084016104d9565b600160066000828254610b699190611c95565b90915550506040805160c08101825233815260208082018781528284018781526060840187905260808401869052600160a0850181905260008a81526007855286812060065482528552959095208451815473ffffffffffffffffffffffffffffffffffffffff19166001600160a01b0390911617815591519482019490945592518051929384939092610c049260028501929101906117d3565b50606082015160038201556080820151600482015560a0909101516005909101805460ff191660ff90921691909117905560065460405186917f55efeccbeabb2045864982a38e914330c836b620cf549bb24186b38075dc157e91610c6b91908590611cad565b60405180910390a25050505050565b60008281526007602090815260408083208484529091529081902060049081015460035492517f70a082310000000000000000000000000000000000000000000000000000000081523392810192909252916001600160a01b0316906370a0823190602401602060405180830381865afa158015610cfc573d6000803e3d6000fd5b505050506040513d601f19601f82011682018060405250810190610d209190611c5f565b1015610d935760405162461bcd60e51b8152602060048201526024808201527f496e73756666696369656e742062616c616e636520746f20616363657074206f60448201527f666665720000000000000000000000000000000000000000000000000000000060648201526084016104d9565b60008281526007602090815260408083208484528252808320600301543384526009909252909120541015610e305760405162461bcd60e51b815260206004820152602760248201527f496e73756666696369656e742072657075746174696f6e20746f20616363657060448201527f74206f666665720000000000000000000000000000000000000000000000000060648201526084016104d9565b600082815260076020908152604080832084845290915290206005015460ff16600114610e5c57600080fd5b600082815260076020908152604080832084845290915290206004015415610f6c5760035460008381526007602090815260408083208584529091529081902060049081015491516323b872dd60e01b8152339181019190915230602482015260448101919091526001600160a01b03909116906323b872dd906064016020604051808303816000875af1158015610ef8573d6000803e3d6000fd5b505050506040513d601f19601f82011682018060405250810190610f1c9190611c78565b5060008281526007602090815260408083208484528252918290206004015491519182527f1e3de43cf90f63862dabec8a594fc4a3112b492bffd33c4ae84f6f3fbc658fac910160405180910390a15b600082815260076020908152604080832084845290915290206003015415611078576002546000838152600760209081526040808320858452909152908190206003015490516323b872dd60e01b815233600482015230602482015260448101919091526001600160a01b03909116906323b872dd906064016020604051808303816000875af1158015611004573d6000803e3d6000fd5b505050506040513d601f19601f820116820180604052508101906110289190611c78565b5060008281526007602090815260408083208484528252918290206003015491519182527fe7f96fd8e157f784816431d3e30dc98a0de49a86f481d3da12c640771136eb21910160405180910390a15b6000828152600760209081526040808320848452909152808220600501805460ff19166002179055513391839185917fcb229072cbcd1d5410a56504f86a872c0eac1578c7eb4463ec190b52d3b669e291a45050565b600a60205260009081526040902080546110e790611c24565b80601f016020809104026020016040519081016040528092919081815260200182805461111390611c24565b80156111605780601f1061113557610100808354040283529160200191611160565b820191906000526020600020905b81548152906001019060200180831161114357829003601f168201915b505050505081565b60046020526000908152604090208054819061118390611c24565b80601f01602080910402602001604051908101604052809291908181526020018280546111af90611c24565b80156111fc5780601f106111d1576101008083540402835291602001916111fc565b820191906000526020600020905b8154815290600101906020018083116111df57829003601f168201915b5050505060018301546002909301549192916001600160a01b0316905083565b611224611316565b6001600160a01b0381166112a05760405162461bcd60e51b815260206004820152602660248201527f4f776e61626c653a206e6577206f776e657220697320746865207a65726f206160448201527f646472657373000000000000000000000000000000000000000000000000000060648201526084016104d9565b6112a981611370565b50565b600061131061130a6001546040517f19457468657265756d205369676e6564204d6573736167653a0a3332000000006020820152603c8101829052600090605c01604051602081830303815290604052805190602001209050919050565b8361153c565b92915050565b6000546001600160a01b031633146107035760405162461bcd60e51b815260206004820181905260248201527f4f776e61626c653a2063616c6c6572206973206e6f7420746865206f776e657260448201526064016104d9565b600080546001600160a01b0383811673ffffffffffffffffffffffffffffffffffffffff19831681178455604051919092169283917f8be0079c531659141344cd1fd0a4f28419497f9722a3daafe3b4186f6b6457e09190a35050565b6002546040517f40c10f190000000000000000000000000000000000000000000000000000000081526001600160a01b03848116600483015260248201849052909116906340c10f1990604401600060405180830381600087803b15801561143457600080fd5b505af1158015611448573d6000803e3d6000fd5b505050507f8b3e040ec34af8a2e647dbd709b7379394e769cb8341782a7f2c64c27472e8af8160405161147d91815260200190565b60405180910390a15050565b6002546040517f42966c68000000000000000000000000000000000000000000000000000000008152600481018390526001600160a01b03909116906342966c6890602401600060405180830381600087803b1580156114e857600080fd5b505af11580156114fc573d6000803e3d6000fd5b505050507f0c25d24798935c2d6ae2c2f59cf1631100478443c0a0f74abce4677bfab758e88160405161153191815260200190565b60405180910390a150565b600080600061154b8585611560565b91509150611558816115a6565b509392505050565b6000808251604114156115975760208301516040840151606085015160001a61158b8782858561170f565b9450945050505061159f565b506000905060025b9250929050565b60008160048111156115ba576115ba611d1b565b14156115c35750565b60018160048111156115d7576115d7611d1b565b14156116255760405162461bcd60e51b815260206004820152601860248201527f45434453413a20696e76616c6964207369676e6174757265000000000000000060448201526064016104d9565b600281600481111561163957611639611d1b565b14156116875760405162461bcd60e51b815260206004820152601f60248201527f45434453413a20696e76616c6964207369676e6174757265206c656e6774680060448201526064016104d9565b600381600481111561169b5761169b611d1b565b14156112a95760405162461bcd60e51b815260206004820152602260248201527f45434453413a20696e76616c6964207369676e6174757265202773272076616c60448201527f756500000000000000000000000000000000000000000000000000000000000060648201526084016104d9565b6000807f7fffffffffffffffffffffffffffffff5d576e7357a4501ddfe92f46681b20a083111561174657506000905060036117ca565b6040805160008082526020820180845289905260ff881692820192909252606081018690526080810185905260019060a0016020604051602081039080840390855afa15801561179a573d6000803e3d6000fd5b5050604051601f1901519150506001600160a01b0381166117c3576000600192509250506117ca565b9150600090505b94509492505050565b8280546117df90611c24565b90600052602060002090601f0160209004810192826118015760008555611847565b82601f1061181a57805160ff1916838001178555611847565b82800160010185558215611847579182015b8281111561184757825182559160200191906001019061182c565b50611853929150611857565b5090565b5b808211156118535760008155600101611858565b634e487b7160e01b600052604160045260246000fd5b600067ffffffffffffffff8084111561189d5761189d61186c565b604051601f8501601f19908116603f011681019082821181831017156118c5576118c561186c565b816040528093508581528686860111156118de57600080fd5b858560208301376000602087830101525050509392505050565b600082601f83011261190957600080fd5b61191883833560208501611882565b9392505050565b6000806040838503121561193257600080fd5b823567ffffffffffffffff81111561194957600080fd5b611955858286016118f8565b95602094909401359450505050565b6000806040838503121561197757600080fd5b50508035926020909101359150565b6000815180845260005b818110156119ac57602081850181015186830182015201611990565b818111156119be576000602083870101525b50601f01601f19169290920160200192915050565b6001600160a01b038716815285602082015260c0604082015260006119fb60c0830187611986565b606083019590955250608081019290925260ff1660a0909101529392505050565b60008060408385031215611a2f57600080fd5b82359150602083013567ffffffffffffffff811115611a4d57600080fd5b8301601f81018513611a5e57600080fd5b611a6d85823560208401611882565b9150509250929050565b80151581146112a957600080fd5b600080600060608486031215611a9a57600080fd5b83359250602084013591506040840135611ab381611a77565b809150509250925092565b60008060008060808587031215611ad457600080fd5b84359350602085013567ffffffffffffffff811115611af257600080fd5b611afe878288016118f8565b949794965050505060408301359260600135919050565b600060208284031215611b2757600080fd5b81356001600160a01b038116811461191857600080fd5b600060208284031215611b5057600080fd5b5035919050565b6020815260006119186020830184611986565b606081526000611b7d6060830186611986565b90508360208301526001600160a01b0383166040830152949350505050565b634e487b7160e01b600052601160045260246000fd5b60007fffffffffffffffffffffffffffffffffffffffffffffffffffffffffffffffff821415611be457611be4611b9c565b5060010190565b600082821015611bfd57611bfd611b9c565b500390565b604081526000611c156040830185611986565b90508260208301529392505050565b600181811c90821680611c3857607f821691505b60208210811415611c5957634e487b7160e01b600052602260045260246000fd5b50919050565b600060208284031215611c7157600080fd5b5051919050565b600060208284031215611c8a57600080fd5b815161191881611a77565b60008219821115611ca857611ca8611b9c565b500190565b828152604060208201526001600160a01b038251166040820152602082015160608201526000604083015160c06080840152611ced610100840182611986565b9050606084015160a0840152608084015160c084015260ff60a08501511660e0840152809150509392505050565b634e487b7160e01b600052602160045260246000fdfea2646970667358221220659ba6e1e8207029deb54fad1b8c8697d620b96f53cd45d4c1e51911e206fdbf64736f6c634300080b0033",
  "devdoc": {
    "kind": "dev",
    "methods": {
      "owner()": {
        "details": "Returns the address of the current owner."
      },
      "renounceOwnership()": {
        "details": "Leaves the contract without owner. It will not be possible to call `onlyOwner` functions anymore. Can only be called by the current owner. NOTE: Renouncing ownership will leave the contract without an owner, thereby removing any functionality that is only available to the owner."
      },
      "transferOwnership(address)": {
        "details": "Transfers ownership of the contract to a new account (`newOwner`). Can only be called by the current owner."
      }
    },
    "version": 1
  },
  "userdoc": {
    "kind": "user",
    "methods": {},
    "version": 1
  },
  "storageLayout": {
    "storage": [
      {
        "astId": 7,
        "contract": "contracts/PeerLocal.sol:PeerLocal",
        "label": "_owner",
        "offset": 0,
        "slot": "0",
        "type": "t_address"
      },
      {
        "astId": 2236,
        "contract": "contracts/PeerLocal.sol:PeerLocal",
        "label": "MESSAGE_TO_BE_SIGNED_BY_COMMUNIT_OWNER",
        "offset": 0,
        "slot": "1",
        "type": "t_bytes32"
      },
      {
        "astId": 2239,
        "contract": "contracts/PeerLocal.sol:PeerLocal",
        "label": "reputationToken",
        "offset": 0,
        "slot": "2",
        "type": "t_contract(ReputationToken)2964"
      },
      {
        "astId": 2331,
        "contract": "contracts/PeerLocal.sol:PeerLocal",
        "label": "token",
        "offset": 0,
        "slot": "3",
        "type": "t_contract(IERC20)777"
      },
      {
        "astId": 2336,
        "contract": "contracts/PeerLocal.sol:PeerLocal",
        "label": "communities",
        "offset": 0,
        "slot": "4",
        "type": "t_mapping(t_uint256,t_struct(Community)2246_storage)"
      },
      {
        "astId": 2339,
        "contract": "contracts/PeerLocal.sol:PeerLocal",
        "label": "communityCounter",
        "offset": 0,
        "slot": "5",
        "type": "t_uint256"
      },
      {
        "astId": 2342,
        "contract": "contracts/PeerLocal.sol:PeerLocal",
        "label": "offerCounter",
        "offset": 0,
        "slot": "6",
        "type": "t_uint256"
      },
      {
        "astId": 2349,
        "contract": "contracts/PeerLocal.sol:PeerLocal",
        "label": "offers",
        "offset": 0,
        "slot": "7",
        "type": "t_mapping(t_uint256,t_mapping(t_uint256,t_struct(Offer)2259_storage))"
      },
      {
        "astId": 2354,
        "contract": "contracts/PeerLocal.sol:PeerLocal",
        "label": "communityMembers",
        "offset": 0,
        "slot": "8",
        "type": "t_mapping(t_uint256,t_array(t_address)dyn_storage)"
      },
      {
        "astId": 2358,
        "contract": "contracts/PeerLocal.sol:PeerLocal",
        "label": "reputation",
        "offset": 0,
        "slot": "9",
        "type": "t_mapping(t_address,t_uint256)"
      },
      {
        "astId": 2362,
        "contract": "contracts/PeerLocal.sol:PeerLocal",
        "label": "offerStatus",
        "offset": 0,
        "slot": "10",
        "type": "t_mapping(t_uint256,t_string_storage)"
      }
    ],
    "types": {
      "t_address": {
        "encoding": "inplace",
        "label": "address",
        "numberOfBytes": "20"
      },
      "t_array(t_address)dyn_storage": {
        "base": "t_address",
        "encoding": "dynamic_array",
        "label": "address[]",
        "numberOfBytes": "32"
      },
      "t_bytes32": {
        "encoding": "inplace",
        "label": "bytes32",
        "numberOfBytes": "32"
      },
      "t_contract(IERC20)777": {
        "encoding": "inplace",
        "label": "contract IERC20",
        "numberOfBytes": "20"
      },
      "t_contract(ReputationToken)2964": {
        "encoding": "inplace",
        "label": "contract ReputationToken",
        "numberOfBytes": "20"
      },
      "t_mapping(t_address,t_uint256)": {
        "encoding": "mapping",
        "key": "t_address",
        "label": "mapping(address => uint256)",
        "numberOfBytes": "32",
        "value": "t_uint256"
      },
      "t_mapping(t_uint256,t_array(t_address)dyn_storage)": {
        "encoding": "mapping",
        "key": "t_uint256",
        "label": "mapping(uint256 => address[])",
        "numberOfBytes": "32",
        "value": "t_array(t_address)dyn_storage"
      },
      "t_mapping(t_uint256,t_mapping(t_uint256,t_struct(Offer)2259_storage))": {
        "encoding": "mapping",
        "key": "t_uint256",
        "label": "mapping(uint256 => mapping(uint256 => struct PeerLocal.Offer))",
        "numberOfBytes": "32",
        "value": "t_mapping(t_uint256,t_struct(Offer)2259_storage)"
      },
      "t_mapping(t_uint256,t_string_storage)": {
        "encoding": "mapping",
        "key": "t_uint256",
        "label": "mapping(uint256 => string)",
        "numberOfBytes": "32",
        "value": "t_string_storage"
      },
      "t_mapping(t_uint256,t_struct(Community)2246_storage)": {
        "encoding": "mapping",
        "key": "t_uint256",
        "label": "mapping(uint256 => struct PeerLocal.Community)",
        "numberOfBytes": "32",
        "value": "t_struct(Community)2246_storage"
      },
      "t_mapping(t_uint256,t_struct(Offer)2259_storage)": {
        "encoding": "mapping",
        "key": "t_uint256",
        "label": "mapping(uint256 => struct PeerLocal.Offer)",
        "numberOfBytes": "32",
        "value": "t_struct(Offer)2259_storage"
      },
      "t_string_storage": {
        "encoding": "bytes",
        "label": "string",
        "numberOfBytes": "32"
      },
      "t_struct(Community)2246_storage": {
        "encoding": "inplace",
        "label": "struct PeerLocal.Community",
        "members": [
          {
            "astId": 2241,
            "contract": "contracts/PeerLocal.sol:PeerLocal",
            "label": "ipfsMetadata",
            "offset": 0,
            "slot": "0",
            "type": "t_string_storage"
          },
          {
            "astId": 2243,
            "contract": "contracts/PeerLocal.sol:PeerLocal",
            "label": "stakingRequirement",
            "offset": 0,
            "slot": "1",
            "type": "t_uint256"
          },
          {
            "astId": 2245,
            "contract": "contracts/PeerLocal.sol:PeerLocal",
            "label": "owner",
            "offset": 0,
            "slot": "2",
            "type": "t_address"
          }
        ],
        "numberOfBytes": "96"
      },
      "t_struct(Offer)2259_storage": {
        "encoding": "inplace",
        "label": "struct PeerLocal.Offer",
        "members": [
          {
            "astId": 2248,
            "contract": "contracts/PeerLocal.sol:PeerLocal",
            "label": "owner",
            "offset": 0,
            "slot": "0",
            "type": "t_address"
          },
          {
            "astId": 2250,
            "contract": "contracts/PeerLocal.sol:PeerLocal",
            "label": "communityId",
            "offset": 0,
            "slot": "1",
            "type": "t_uint256"
          },
          {
            "astId": 2252,
            "contract": "contracts/PeerLocal.sol:PeerLocal",
            "label": "metadata",
            "offset": 0,
            "slot": "2",
            "type": "t_string_storage"
          },
          {
            "astId": 2254,
            "contract": "contracts/PeerLocal.sol:PeerLocal",
            "label": "reputationRequirement",
            "offset": 0,
            "slot": "3",
            "type": "t_uint256"
          },
          {
            "astId": 2256,
            "contract": "contracts/PeerLocal.sol:PeerLocal",
            "label": "stakingRequirement",
            "offset": 0,
            "slot": "4",
            "type": "t_uint256"
          },
          {
            "astId": 2258,
            "contract": "contracts/PeerLocal.sol:PeerLocal",
            "label": "offerStatus",
            "offset": 0,
            "slot": "5",
            "type": "t_uint8"
          }
        ],
        "numberOfBytes": "192"
      },
      "t_uint256": {
        "encoding": "inplace",
        "label": "uint256",
        "numberOfBytes": "32"
      },
      "t_uint8": {
        "encoding": "inplace",
        "label": "uint8",
        "numberOfBytes": "1"
      }
    }
  }
}